{"contracts/Campaign.sol":{"Campaign":{"abi":[{"inputs":[{"internalType":"address","name":"_manager","type":"address"},{"internalType":"uint256","name":"_goal","type":"uint256"},{"internalType":"uint256","name":"_deadline","type":"uint256"},{"internalType":"string","name":"_image","type":"string"},{"internalType":"string","name":"_campaignName","type":"string"},{"internalType":"string","name":"_ownerName","type":"string"},{"internalType":"string","name":"_description","type":"string"}],"stateMutability":"payable","type":"constructor"},{"inputs":[],"name":"ReentrancyGuardReentrantCall","type":"error"},{"anonymous":false,"inputs":[{"indexed":false,"internalType":"address","name":"contributor","type":"address"},{"indexed":false,"internalType":"uint256","name":"amount","type":"uint256"}],"name":"ContributionReceived","type":"event"},{"anonymous":false,"inputs":[{"indexed":false,"internalType":"address","name":"manager","type":"address"},{"indexed":false,"internalType":"uint256","name":"amount","type":"uint256"}],"name":"FundsClaimed","type":"event"},{"anonymous":false,"inputs":[{"indexed":false,"internalType":"address","name":"contributor","type":"address"},{"indexed":false,"internalType":"uint256","name":"amount","type":"uint256"}],"name":"RefundIssued","type":"event"},{"anonymous":false,"inputs":[{"indexed":false,"internalType":"uint256","name":"numProcessed","type":"uint256"}],"name":"RefundsProcessed","type":"event"},{"inputs":[],"name":"campaignName","outputs":[{"internalType":"string","name":"","type":"string"}],"stateMutability":"view","type":"function"},{"inputs":[],"name":"claimFunds","outputs":[],"stateMutability":"nonpayable","type":"function"},{"inputs":[],"name":"contribute","outputs":[],"stateMutability":"payable","type":"function"},{"inputs":[{"internalType":"address","name":"","type":"address"}],"name":"contributions","outputs":[{"internalType":"uint256","name":"","type":"uint256"}],"stateMutability":"view","type":"function"},{"inputs":[{"internalType":"uint256","name":"","type":"uint256"}],"name":"contributors","outputs":[{"internalType":"address","name":"","type":"address"}],"stateMutability":"view","type":"function"},{"inputs":[],"name":"deadline","outputs":[{"internalType":"uint256","name":"","type":"uint256"}],"stateMutability":"view","type":"function"},{"inputs":[],"name":"deposit","outputs":[{"internalType":"uint256","name":"","type":"uint256"}],"stateMutability":"view","type":"function"},{"inputs":[],"name":"description","outputs":[{"internalType":"string","name":"","type":"string"}],"stateMutability":"view","type":"function"},{"inputs":[],"name":"fundsClaimed","outputs":[{"internalType":"bool","name":"","type":"bool"}],"stateMutability":"view","type":"function"},{"inputs":[],"name":"getDetails","outputs":[{"internalType":"address","name":"_manager","type":"address"},{"internalType":"uint256","name":"_goal","type":"uint256"},{"internalType":"uint256","name":"_pledged","type":"uint256"},{"internalType":"uint256","name":"_deadline","type":"uint256"},{"internalType":"bool","name":"_goalReached","type":"bool"},{"internalType":"bool","name":"_fundsClaimed","type":"bool"},{"internalType":"uint256","name":"_refundIndex","type":"uint256"},{"internalType":"uint256","name":"_totalContributors","type":"uint256"},{"internalType":"string","name":"_campaignName","type":"string"},{"internalType":"string","name":"_ownerName","type":"string"},{"internalType":"string","name":"_description","type":"string"}],"stateMutability":"view","type":"function"},{"inputs":[],"name":"goal","outputs":[{"internalType":"uint256","name":"","type":"uint256"}],"stateMutability":"view","type":"function"},{"inputs":[],"name":"goalReached","outputs":[{"internalType":"bool","name":"","type":"bool"}],"stateMutability":"view","type":"function"},{"inputs":[],"name":"image","outputs":[{"internalType":"string","name":"","type":"string"}],"stateMutability":"view","type":"function"},{"inputs":[],"name":"manager","outputs":[{"internalType":"address","name":"","type":"address"}],"stateMutability":"view","type":"function"},{"inputs":[],"name":"ownerName","outputs":[{"internalType":"string","name":"","type":"string"}],"stateMutability":"view","type":"function"},{"inputs":[],"name":"pledged","outputs":[{"internalType":"uint256","name":"","type":"uint256"}],"stateMutability":"view","type":"function"},{"inputs":[],"name":"refundIndex","outputs":[{"internalType":"uint256","name":"","type":"uint256"}],"stateMutability":"view","type":"function"},{"inputs":[{"internalType":"uint256","name":"_numContributors","type":"uint256"}],"name":"triggerRefunds","outputs":[],"stateMutability":"nonpayable","type":"function"},{"stateMutability":"payable","type":"receive"}],"evm":{"bytecode":{"linkReferences":{},"object":"608060405260405162002307380380620023078339818101604052810190620000299190620003a1565b600160008190555042851162000076576040517f08c379a00000000000000000000000000000000000000000000000000000000081526004016200006d9062000531565b60405180910390fd5b6706f05b59d3b200003414620000c3576040517f08c379a0000000000000000000000000000000000000000000000000000000008152600401620000ba90620005a3565b60405180910390fd5b86600160006101000a81548173ffffffffffffffffffffffffffffffffffffffff021916908373ffffffffffffffffffffffffffffffffffffffff16021790555085600281905550846004819055503460098190555083600a90816200012a919062000806565b5082600b90816200013c919062000806565b5081600c90816200014e919062000806565b5080600d908162000160919062000806565b5050505050505050620008ed565b6000604051905090565b600080fd5b600080fd5b600073ffffffffffffffffffffffffffffffffffffffff82169050919050565b6000620001af8262000182565b9050919050565b620001c181620001a2565b8114620001cd57600080fd5b50565b600081519050620001e181620001b6565b92915050565b6000819050919050565b620001fc81620001e7565b81146200020857600080fd5b50565b6000815190506200021c81620001f1565b92915050565b600080fd5b600080fd5b6000601f19601f8301169050919050565b7f4e487b7100000000000000000000000000000000000000000000000000000000600052604160045260246000fd5b62000277826200022c565b810181811067ffffffffffffffff821117156200029957620002986200023d565b5b80604052505050565b6000620002ae6200016e565b9050620002bc82826200026c565b919050565b600067ffffffffffffffff821115620002df57620002de6200023d565b5b620002ea826200022c565b9050602081019050919050565b60005b8381101562000317578082015181840152602081019050620002fa565b60008484015250505050565b60006200033a6200033484620002c1565b620002a2565b90508281526020810184848401111562000359576200035862000227565b5b62000366848285620002f7565b509392505050565b600082601f83011262000386576200038562000222565b5b81516200039884826020860162000323565b91505092915050565b600080600080600080600060e0888a031215620003c357620003c262000178565b5b6000620003d38a828b01620001d0565b9750506020620003e68a828b016200020b565b9650506040620003f98a828b016200020b565b955050606088015167ffffffffffffffff8111156200041d576200041c6200017d565b5b6200042b8a828b016200036e565b945050608088015167ffffffffffffffff8111156200044f576200044e6200017d565b5b6200045d8a828b016200036e565b93505060a088015167ffffffffffffffff8111156200048157620004806200017d565b5b6200048f8a828b016200036e565b92505060c088015167ffffffffffffffff811115620004b357620004b26200017d565b5b620004c18a828b016200036e565b91505092959891949750929550565b600082825260208201905092915050565b7f446561646c696e65206d75737420626520696e20746865206675747572652e00600082015250565b600062000519601f83620004d0565b91506200052682620004e1565b602082019050919050565b600060208201905081810360008301526200054c816200050a565b9050919050565b7f4120302e3520455448206465706f7369742069732072657175697265642e0000600082015250565b60006200058b601e83620004d0565b9150620005988262000553565b602082019050919050565b60006020820190508181036000830152620005be816200057c565b9050919050565b600081519050919050565b7f4e487b7100000000000000000000000000000000000000000000000000000000600052602260045260246000fd5b600060028204905060018216806200061857607f821691505b6020821081036200062e576200062d620005d0565b5b50919050565b60008190508160005260206000209050919050565b60006020601f8301049050919050565b600082821b905092915050565b600060088302620006987fffffffffffffffffffffffffffffffffffffffffffffffffffffffffffffffff8262000659565b620006a4868362000659565b95508019841693508086168417925050509392505050565b6000819050919050565b6000620006e7620006e1620006db84620001e7565b620006bc565b620001e7565b9050919050565b6000819050919050565b6200070383620006c6565b6200071b6200071282620006ee565b84845462000666565b825550505050565b600090565b6200073262000723565b6200073f818484620006f8565b505050565b5b8181101562000767576200075b60008262000728565b60018101905062000745565b5050565b601f821115620007b657620007808162000634565b6200078b8462000649565b810160208510156200079b578190505b620007b3620007aa8562000649565b83018262000744565b50505b505050565b600082821c905092915050565b6000620007db60001984600802620007bb565b1980831691505092915050565b6000620007f68383620007c8565b9150826002028217905092915050565b6200081182620005c5565b67ffffffffffffffff8111156200082d576200082c6200023d565b5b620008398254620005ff565b620008468282856200076b565b600060209050601f8311600181146200087e576000841562000869578287015190505b620008758582620007e8565b865550620008e5565b601f1984166200088e8662000634565b60005b82811015620008b85784890151825560018201915060208501945060208101905062000891565b86831015620008d85784890151620008d4601f891682620007c8565b8355505b6001600288020188555050505b505050505050565b611a0a80620008fd6000396000f3fe60806040526004361061010d5760003560e01c806365ac232011610095578063aeafca2e11610064578063aeafca2e14610356578063d0e30db014610381578063d7bb99ba146103ac578063f3ccaac0146103b6578063fbbf93a0146103e157610114565b806365ac2320146102be5780637284e416146102e95780637d3d652214610314578063ac3077731461033f57610114565b80633cb5d100116100dc5780633cb5d100146101c3578063401938831461020057806342e94c901461022b578063481c6a75146102685780635c6a02461461029357610114565b80630724fda914610119578063133309b81461014457806329dcb0cf1461016f57806335315d8d1461019a57610114565b3661011457005b600080fd5b34801561012557600080fd5b5061012e610416565b60405161013b919061120c565b60405180910390f35b34801561015057600080fd5b506101596104a4565b6040516101669190611247565b60405180910390f35b34801561017b57600080fd5b506101846104aa565b6040516101919190611247565b60405180910390f35b3480156101a657600080fd5b506101c160048036038101906101bc9190611293565b6104b0565b005b3480156101cf57600080fd5b506101ea60048036038101906101e59190611293565b610854565b6040516101f79190611301565b60405180910390f35b34801561020c57600080fd5b50610215610893565b6040516102229190611247565b60405180910390f35b34801561023757600080fd5b50610252600480360381019061024d9190611348565b610899565b60405161025f9190611247565b60405180910390f35b34801561027457600080fd5b5061027d6108b1565b60405161028a9190611301565b60405180910390f35b34801561029f57600080fd5b506102a86108d7565b6040516102b59190611390565b60405180910390f35b3480156102ca57600080fd5b506102d36108ea565b6040516102e0919061120c565b60405180910390f35b3480156102f557600080fd5b506102fe610978565b60405161030b919061120c565b60405180910390f35b34801561032057600080fd5b50610329610a06565b6040516103369190611390565b60405180910390f35b34801561034b57600080fd5b50610354610a19565b005b34801561036257600080fd5b5061036b610c4c565b6040516103789190611247565b60405180910390f35b34801561038d57600080fd5b50610396610c52565b6040516103a39190611247565b60405180910390f35b6103b4610c58565b005b3480156103c257600080fd5b506103cb610e6b565b6040516103d8919061120c565b60405180910390f35b3480156103ed57600080fd5b506103f6610ef9565b60405161040d9b9a999897969594939291906113ab565b60405180910390f35b600b80546104239061149a565b80601f016020809104026020016040519081016040528092919081815260200182805461044f9061149a565b801561049c5780601f106104715761010080835404028352916020019161049c565b820191906000526020600020905b81548152906001019060200180831161047f57829003601f168201915b505050505081565b60085481565b60045481565b6104b861112c565b6004544210156104fd576040517f08c379a00000000000000000000000000000000000000000000000000000000081526004016104f490611517565b60405180910390fd5b600560009054906101000a900460ff161561054d576040517f08c379a0000000000000000000000000000000000000000000000000000000008152600401610544906115a9565b60405180910390fd5b60078054905060085410610596576040517f08c379a000000000000000000000000000000000000000000000000000000000815260040161058d90611615565b60405180910390fd5b60005b6007805490506008541080156105ae57508181105b156107385760006007600854815481106105cb576105ca611635565b5b9060005260206000200160009054906101000a900473ffffffffffffffffffffffffffffffffffffffff1690506000600660008373ffffffffffffffffffffffffffffffffffffffff1673ffffffffffffffffffffffffffffffffffffffff168152602001908152602001600020549050600081111561070b576000600660008473ffffffffffffffffffffffffffffffffffffffff1673ffffffffffffffffffffffffffffffffffffffff168152602001908152602001600020819055508173ffffffffffffffffffffffffffffffffffffffff166108fc829081150290604051600060405180830381858888f193505050501580156106d0573d6000803e3d6000fd5b507fa171b6942063c6f2800ce40a780edce37baa2b618571b11eedd1e69e626e7d768282604051610702929190611664565b60405180910390a15b6008600081548092919061071e906116bc565b9190505550828061072e906116bc565b9350505050610599565b6000662386f26fc10000905080600954106107b2573373ffffffffffffffffffffffffffffffffffffffff166108fc829081150290604051600060405180830381858888f19350505050158015610793573d6000803e3d6000fd5b5080600960008282546107a69190611704565b92505081905550610810565b6000600954111561080f573373ffffffffffffffffffffffffffffffffffffffff166108fc6009549081150290604051600060405180830381858888f19350505050158015610805573d6000803e3d6000fd5b5060006009819055505b5b7f46d3850b571318301cc4e460ba87545dd2bdd6d1f8e6fb10c4c4c8f57e1a826c8260405161083f9190611247565b60405180910390a15050610851611172565b50565b6007818154811061086457600080fd5b906000526020600020016000915054906101000a900473ffffffffffffffffffffffffffffffffffffffff1681565b60025481565b60066020528060005260406000206000915090505481565b600160009054906101000a900473ffffffffffffffffffffffffffffffffffffffff1681565b600560019054906101000a900460ff1681565b600c80546108f79061149a565b80601f01602080910402602001604051908101604052809291908181526020018280546109239061149a565b80156109705780601f1061094557610100808354040283529160200191610970565b820191906000526020600020905b81548152906001019060200180831161095357829003601f168201915b505050505081565b600d80546109859061149a565b80601f01602080910402602001604051908101604052809291908181526020018280546109b19061149a565b80156109fe5780601f106109d3576101008083540402835291602001916109fe565b820191906000526020600020905b8154815290600101906020018083116109e157829003601f168201915b505050505081565b600560009054906101000a900460ff1681565b600160009054906101000a900473ffffffffffffffffffffffffffffffffffffffff1673ffffffffffffffffffffffffffffffffffffffff163373ffffffffffffffffffffffffffffffffffffffff1614610aa9576040517f08c379a0000000000000000000000000000000000000000000000000000000008152600401610aa0906117aa565b60405180910390fd5b610ab161112c565b600560009054906101000a900460ff16610b00576040517f08c379a0000000000000000000000000000000000000000000000000000000008152600401610af790611816565b60405180910390fd5b600560019054906101000a900460ff1615610b50576040517f08c379a0000000000000000000000000000000000000000000000000000000008152600401610b4790611882565b60405180910390fd5b6001600560016101000a81548160ff021916908315150217905550600060095447610b7b9190611704565b9050600160009054906101000a900473ffffffffffffffffffffffffffffffffffffffff1673ffffffffffffffffffffffffffffffffffffffff166108fc829081150290604051600060405180830381858888f19350505050158015610be5573d6000803e3d6000fd5b507fa65a8b4f7f65a1063243d7f7e9e4da00ff767599acf21549ef2548a45d1695ae600160009054906101000a900473ffffffffffffffffffffffffffffffffffffffff1682604051610c39929190611664565b60405180910390a150610c4a611172565b565b60035481565b60095481565b610c6061112c565b6004544210610ca4576040517f08c379a0000000000000000000000000000000000000000000000000000000008152600401610c9b906118ee565b60405180910390fd5b60003411610ce7576040517f08c379a0000000000000000000000000000000000000000000000000000000008152600401610cde90611980565b60405180910390fd5b6000600660003373ffffffffffffffffffffffffffffffffffffffff1673ffffffffffffffffffffffffffffffffffffffff1681526020019081526020016000205403610d92576007339080600181540180825580915050600190039060005260206000200160009091909190916101000a81548173ffffffffffffffffffffffffffffffffffffffff021916908373ffffffffffffffffffffffffffffffffffffffff1602179055505b34600660003373ffffffffffffffffffffffffffffffffffffffff1673ffffffffffffffffffffffffffffffffffffffff1681526020019081526020016000206000828254610de191906119a0565b925050819055503460036000828254610dfa91906119a0565b925050819055507f1bb460ccaaf70fbacfec17a376f8acbd278c1405590ffcc8ebe4b88daf4f64ad3334604051610e32929190611664565b60405180910390a160025460035410610e61576001600560006101000a81548160ff0219169083151502179055505b610e69611172565b565b600a8054610e789061149a565b80601f0160208091040260200160405190810160405280929190818152602001828054610ea49061149a565b8015610ef15780601f10610ec657610100808354040283529160200191610ef1565b820191906000526020600020905b815481529060010190602001808311610ed457829003601f168201915b505050505081565b6000806000806000806000806060806060600160009054906101000a900473ffffffffffffffffffffffffffffffffffffffff16600254600354600454600560009054906101000a900460ff16600560019054906101000a900460ff16600854600780549050600b600c600d828054610f719061149a565b80601f0160208091040260200160405190810160405280929190818152602001828054610f9d9061149a565b8015610fea5780601f10610fbf57610100808354040283529160200191610fea565b820191906000526020600020905b815481529060010190602001808311610fcd57829003601f168201915b50505050509250818054610ffd9061149a565b80601f01602080910402602001604051908101604052809291908181526020018280546110299061149a565b80156110765780601f1061104b57610100808354040283529160200191611076565b820191906000526020600020905b81548152906001019060200180831161105957829003601f168201915b505050505091508080546110899061149a565b80601f01602080910402602001604051908101604052809291908181526020018280546110b59061149a565b80156111025780601f106110d757610100808354040283529160200191611102565b820191906000526020600020905b8154815290600101906020018083116110e557829003601f168201915b505050505090509a509a509a509a509a509a509a509a509a509a509a50909192939495969798999a565b600260005403611168576040517f3ee5aeb500000000000000000000000000000000000000000000000000000000815260040160405180910390fd5b6002600081905550565b6001600081905550565b600081519050919050565b600082825260208201905092915050565b60005b838110156111b657808201518184015260208101905061119b565b60008484015250505050565b6000601f19601f8301169050919050565b60006111de8261117c565b6111e88185611187565b93506111f8818560208601611198565b611201816111c2565b840191505092915050565b6000602082019050818103600083015261122681846111d3565b905092915050565b6000819050919050565b6112418161122e565b82525050565b600060208201905061125c6000830184611238565b92915050565b600080fd5b6112708161122e565b811461127b57600080fd5b50565b60008135905061128d81611267565b92915050565b6000602082840312156112a9576112a8611262565b5b60006112b78482850161127e565b91505092915050565b600073ffffffffffffffffffffffffffffffffffffffff82169050919050565b60006112eb826112c0565b9050919050565b6112fb816112e0565b82525050565b600060208201905061131660008301846112f2565b92915050565b611325816112e0565b811461133057600080fd5b50565b6000813590506113428161131c565b92915050565b60006020828403121561135e5761135d611262565b5b600061136c84828501611333565b91505092915050565b60008115159050919050565b61138a81611375565b82525050565b60006020820190506113a56000830184611381565b92915050565b6000610160820190506113c1600083018e6112f2565b6113ce602083018d611238565b6113db604083018c611238565b6113e8606083018b611238565b6113f5608083018a611381565b61140260a0830189611381565b61140f60c0830188611238565b61141c60e0830187611238565b81810361010083015261142f81866111d3565b905081810361012083015261144481856111d3565b905081810361014083015261145981846111d3565b90509c9b505050505050505050505050565b7f4e487b7100000000000000000000000000000000000000000000000000000000600052602260045260246000fd5b600060028204905060018216806114b257607f821691505b6020821081036114c5576114c461146b565b5b50919050565b7f43616d706169676e206973207374696c6c206f6e676f696e672e000000000000600082015250565b6000611501601a83611187565b915061150c826114cb565b602082019050919050565b60006020820190508181036000830152611530816114f4565b9050919050565b7f46756e64696e6720676f616c2077617320726561636865642e20526566756e6460008201527f7320617265206e6f7420617661696c61626c652e000000000000000000000000602082015250565b6000611593603483611187565b915061159e82611537565b604082019050919050565b600060208201905081810360008301526115c281611586565b9050919050565b7f416c6c20726566756e64732068617665206265656e2070726f6365737365642e600082015250565b60006115ff602083611187565b915061160a826115c9565b602082019050919050565b6000602082019050818103600083015261162e816115f2565b9050919050565b7f4e487b7100000000000000000000000000000000000000000000000000000000600052603260045260246000fd5b600060408201905061167960008301856112f2565b6116866020830184611238565b9392505050565b7f4e487b7100000000000000000000000000000000000000000000000000000000600052601160045260246000fd5b60006116c78261122e565b91507fffffffffffffffffffffffffffffffffffffffffffffffffffffffffffffffff82036116f9576116f861168d565b5b600182019050919050565b600061170f8261122e565b915061171a8361122e565b92508282039050818111156117325761173161168d565b5b92915050565b7f4f6e6c79206d616e616765722063616e2063616c6c20746869732066756e637460008201527f696f6e2e00000000000000000000000000000000000000000000000000000000602082015250565b6000611794602483611187565b915061179f82611738565b604082019050919050565b600060208201905081810360008301526117c381611787565b9050919050565b7f46756e64696e6720676f616c206e6f7420726561636865642e00000000000000600082015250565b6000611800601983611187565b915061180b826117ca565b602082019050919050565b6000602082019050818103600083015261182f816117f3565b9050919050565b7f46756e6473206861766520616c7265616479206265656e20636c61696d65642e600082015250565b600061186c602083611187565b915061187782611836565b602082019050919050565b6000602082019050818103600083015261189b8161185f565b9050919050565b7f43616d706169676e2068617320656e6465642e00000000000000000000000000600082015250565b60006118d8601383611187565b91506118e3826118a2565b602082019050919050565b60006020820190508181036000830152611907816118cb565b9050919050565b7f436f6e747269627574696f6e206d75737420626520677265617465722074686160008201527f6e207a65726f2e00000000000000000000000000000000000000000000000000602082015250565b600061196a602783611187565b91506119758261190e565b604082019050919050565b600060208201905081810360008301526119998161195d565b9050919050565b60006119ab8261122e565b91506119b68361122e565b92508282019050808211156119ce576119cd61168d565b5b9291505056fea2646970667358221220320c5ab021e43e531d909dd181605854e8a8235098cbf8c350ce9cd868ce5a7064736f6c63430008180033","opcodes":"PUSH1 0x80 PUSH1 0x40 MSTORE PUSH1 0x40 MLOAD PUSH3 0x2307 CODESIZE SUB DUP1 PUSH3 0x2307 DUP4 CODECOPY DUP2 DUP2 ADD PUSH1 0x40 MSTORE DUP2 ADD SWAP1 PUSH3 0x29 SWAP2 SWAP1 PUSH3 0x3A1 JUMP JUMPDEST PUSH1 0x1 PUSH1 0x0 DUP2 SWAP1 SSTORE POP TIMESTAMP DUP6 GT PUSH3 0x76 JUMPI PUSH1 0x40 MLOAD PUSH32 0x8C379A000000000000000000000000000000000000000000000000000000000 DUP2 MSTORE PUSH1 0x4 ADD PUSH3 0x6D SWAP1 PUSH3 0x531 JUMP JUMPDEST PUSH1 0x40 MLOAD DUP1 SWAP2 SUB SWAP1 REVERT JUMPDEST PUSH8 0x6F05B59D3B20000 CALLVALUE EQ PUSH3 0xC3 JUMPI PUSH1 0x40 MLOAD PUSH32 0x8C379A000000000000000000000000000000000000000000000000000000000 DUP2 MSTORE PUSH1 0x4 ADD PUSH3 0xBA SWAP1 PUSH3 0x5A3 JUMP JUMPDEST PUSH1 0x40 MLOAD DUP1 SWAP2 SUB SWAP1 REVERT JUMPDEST DUP7 PUSH1 0x1 PUSH1 0x0 PUSH2 0x100 EXP DUP2 SLOAD DUP2 PUSH20 0xFFFFFFFFFFFFFFFFFFFFFFFFFFFFFFFFFFFFFFFF MUL NOT AND SWAP1 DUP4 PUSH20 0xFFFFFFFFFFFFFFFFFFFFFFFFFFFFFFFFFFFFFFFF AND MUL OR SWAP1 SSTORE POP DUP6 PUSH1 0x2 DUP2 SWAP1 SSTORE POP DUP5 PUSH1 0x4 DUP2 SWAP1 SSTORE POP CALLVALUE PUSH1 0x9 DUP2 SWAP1 SSTORE POP DUP4 PUSH1 0xA SWAP1 DUP2 PUSH3 0x12A SWAP2 SWAP1 PUSH3 0x806 JUMP JUMPDEST POP DUP3 PUSH1 0xB SWAP1 DUP2 PUSH3 0x13C SWAP2 SWAP1 PUSH3 0x806 JUMP JUMPDEST POP DUP2 PUSH1 0xC SWAP1 DUP2 PUSH3 0x14E SWAP2 SWAP1 PUSH3 0x806 JUMP JUMPDEST POP DUP1 PUSH1 0xD SWAP1 DUP2 PUSH3 0x160 SWAP2 SWAP1 PUSH3 0x806 JUMP JUMPDEST POP POP POP POP POP POP POP POP PUSH3 0x8ED JUMP JUMPDEST PUSH1 0x0 PUSH1 0x40 MLOAD SWAP1 POP SWAP1 JUMP JUMPDEST PUSH1 0x0 DUP1 REVERT JUMPDEST PUSH1 0x0 DUP1 REVERT JUMPDEST PUSH1 0x0 PUSH20 0xFFFFFFFFFFFFFFFFFFFFFFFFFFFFFFFFFFFFFFFF DUP3 AND SWAP1 POP SWAP2 SWAP1 POP JUMP JUMPDEST PUSH1 0x0 PUSH3 0x1AF DUP3 PUSH3 0x182 JUMP JUMPDEST SWAP1 POP SWAP2 SWAP1 POP JUMP JUMPDEST PUSH3 0x1C1 DUP2 PUSH3 0x1A2 JUMP JUMPDEST DUP2 EQ PUSH3 0x1CD JUMPI PUSH1 0x0 DUP1 REVERT JUMPDEST POP JUMP JUMPDEST PUSH1 0x0 DUP2 MLOAD SWAP1 POP PUSH3 0x1E1 DUP2 PUSH3 0x1B6 JUMP JUMPDEST SWAP3 SWAP2 POP POP JUMP JUMPDEST PUSH1 0x0 DUP2 SWAP1 POP SWAP2 SWAP1 POP JUMP JUMPDEST PUSH3 0x1FC DUP2 PUSH3 0x1E7 JUMP JUMPDEST DUP2 EQ PUSH3 0x208 JUMPI PUSH1 0x0 DUP1 REVERT JUMPDEST POP JUMP JUMPDEST PUSH1 0x0 DUP2 MLOAD SWAP1 POP PUSH3 0x21C DUP2 PUSH3 0x1F1 JUMP JUMPDEST SWAP3 SWAP2 POP POP JUMP JUMPDEST PUSH1 0x0 DUP1 REVERT JUMPDEST PUSH1 0x0 DUP1 REVERT JUMPDEST PUSH1 0x0 PUSH1 0x1F NOT PUSH1 0x1F DUP4 ADD AND SWAP1 POP SWAP2 SWAP1 POP JUMP JUMPDEST PUSH32 0x4E487B7100000000000000000000000000000000000000000000000000000000 PUSH1 0x0 MSTORE PUSH1 0x41 PUSH1 0x4 MSTORE PUSH1 0x24 PUSH1 0x0 REVERT JUMPDEST PUSH3 0x277 DUP3 PUSH3 0x22C JUMP JUMPDEST DUP2 ADD DUP2 DUP2 LT PUSH8 0xFFFFFFFFFFFFFFFF DUP3 GT OR ISZERO PUSH3 0x299 JUMPI PUSH3 0x298 PUSH3 0x23D JUMP JUMPDEST JUMPDEST DUP1 PUSH1 0x40 MSTORE POP POP POP JUMP JUMPDEST PUSH1 0x0 PUSH3 0x2AE PUSH3 0x16E JUMP JUMPDEST SWAP1 POP PUSH3 0x2BC DUP3 DUP3 PUSH3 0x26C JUMP JUMPDEST SWAP2 SWAP1 POP JUMP JUMPDEST PUSH1 0x0 PUSH8 0xFFFFFFFFFFFFFFFF DUP3 GT ISZERO PUSH3 0x2DF JUMPI PUSH3 0x2DE PUSH3 0x23D JUMP JUMPDEST JUMPDEST PUSH3 0x2EA DUP3 PUSH3 0x22C JUMP JUMPDEST SWAP1 POP PUSH1 0x20 DUP2 ADD SWAP1 POP SWAP2 SWAP1 POP JUMP JUMPDEST PUSH1 0x0 JUMPDEST DUP4 DUP2 LT ISZERO PUSH3 0x317 JUMPI DUP1 DUP3 ADD MLOAD DUP2 DUP5 ADD MSTORE PUSH1 0x20 DUP2 ADD SWAP1 POP PUSH3 0x2FA JUMP JUMPDEST PUSH1 0x0 DUP5 DUP5 ADD MSTORE POP POP POP POP JUMP JUMPDEST PUSH1 0x0 PUSH3 0x33A PUSH3 0x334 DUP5 PUSH3 0x2C1 JUMP JUMPDEST PUSH3 0x2A2 JUMP JUMPDEST SWAP1 POP DUP3 DUP2 MSTORE PUSH1 0x20 DUP2 ADD DUP5 DUP5 DUP5 ADD GT ISZERO PUSH3 0x359 JUMPI PUSH3 0x358 PUSH3 0x227 JUMP JUMPDEST JUMPDEST PUSH3 0x366 DUP5 DUP3 DUP6 PUSH3 0x2F7 JUMP JUMPDEST POP SWAP4 SWAP3 POP POP POP JUMP JUMPDEST PUSH1 0x0 DUP3 PUSH1 0x1F DUP4 ADD SLT PUSH3 0x386 JUMPI PUSH3 0x385 PUSH3 0x222 JUMP JUMPDEST JUMPDEST DUP2 MLOAD PUSH3 0x398 DUP5 DUP3 PUSH1 0x20 DUP7 ADD PUSH3 0x323 JUMP JUMPDEST SWAP2 POP POP SWAP3 SWAP2 POP POP JUMP JUMPDEST PUSH1 0x0 DUP1 PUSH1 0x0 DUP1 PUSH1 0x0 DUP1 PUSH1 0x0 PUSH1 0xE0 DUP9 DUP11 SUB SLT ISZERO PUSH3 0x3C3 JUMPI PUSH3 0x3C2 PUSH3 0x178 JUMP JUMPDEST JUMPDEST PUSH1 0x0 PUSH3 0x3D3 DUP11 DUP3 DUP12 ADD PUSH3 0x1D0 JUMP JUMPDEST SWAP8 POP POP PUSH1 0x20 PUSH3 0x3E6 DUP11 DUP3 DUP12 ADD PUSH3 0x20B JUMP JUMPDEST SWAP7 POP POP PUSH1 0x40 PUSH3 0x3F9 DUP11 DUP3 DUP12 ADD PUSH3 0x20B JUMP JUMPDEST SWAP6 POP POP PUSH1 0x60 DUP9 ADD MLOAD PUSH8 0xFFFFFFFFFFFFFFFF DUP2 GT ISZERO PUSH3 0x41D JUMPI PUSH3 0x41C PUSH3 0x17D JUMP JUMPDEST JUMPDEST PUSH3 0x42B DUP11 DUP3 DUP12 ADD PUSH3 0x36E JUMP JUMPDEST SWAP5 POP POP PUSH1 0x80 DUP9 ADD MLOAD PUSH8 0xFFFFFFFFFFFFFFFF DUP2 GT ISZERO PUSH3 0x44F JUMPI PUSH3 0x44E PUSH3 0x17D JUMP JUMPDEST JUMPDEST PUSH3 0x45D DUP11 DUP3 DUP12 ADD PUSH3 0x36E JUMP JUMPDEST SWAP4 POP POP PUSH1 0xA0 DUP9 ADD MLOAD PUSH8 0xFFFFFFFFFFFFFFFF DUP2 GT ISZERO PUSH3 0x481 JUMPI PUSH3 0x480 PUSH3 0x17D JUMP JUMPDEST JUMPDEST PUSH3 0x48F DUP11 DUP3 DUP12 ADD PUSH3 0x36E JUMP JUMPDEST SWAP3 POP POP PUSH1 0xC0 DUP9 ADD MLOAD PUSH8 0xFFFFFFFFFFFFFFFF DUP2 GT ISZERO PUSH3 0x4B3 JUMPI PUSH3 0x4B2 PUSH3 0x17D JUMP JUMPDEST JUMPDEST PUSH3 0x4C1 DUP11 DUP3 DUP12 ADD PUSH3 0x36E JUMP JUMPDEST SWAP2 POP POP SWAP3 SWAP6 SWAP9 SWAP2 SWAP5 SWAP8 POP SWAP3 SWAP6 POP JUMP JUMPDEST PUSH1 0x0 DUP3 DUP3 MSTORE PUSH1 0x20 DUP3 ADD SWAP1 POP SWAP3 SWAP2 POP POP JUMP JUMPDEST PUSH32 0x446561646C696E65206D75737420626520696E20746865206675747572652E00 PUSH1 0x0 DUP3 ADD MSTORE POP JUMP JUMPDEST PUSH1 0x0 PUSH3 0x519 PUSH1 0x1F DUP4 PUSH3 0x4D0 JUMP JUMPDEST SWAP2 POP PUSH3 0x526 DUP3 PUSH3 0x4E1 JUMP JUMPDEST PUSH1 0x20 DUP3 ADD SWAP1 POP SWAP2 SWAP1 POP JUMP JUMPDEST PUSH1 0x0 PUSH1 0x20 DUP3 ADD SWAP1 POP DUP2 DUP2 SUB PUSH1 0x0 DUP4 ADD MSTORE PUSH3 0x54C DUP2 PUSH3 0x50A JUMP JUMPDEST SWAP1 POP SWAP2 SWAP1 POP JUMP JUMPDEST PUSH32 0x4120302E3520455448206465706F7369742069732072657175697265642E0000 PUSH1 0x0 DUP3 ADD MSTORE POP JUMP JUMPDEST PUSH1 0x0 PUSH3 0x58B PUSH1 0x1E DUP4 PUSH3 0x4D0 JUMP JUMPDEST SWAP2 POP PUSH3 0x598 DUP3 PUSH3 0x553 JUMP JUMPDEST PUSH1 0x20 DUP3 ADD SWAP1 POP SWAP2 SWAP1 POP JUMP JUMPDEST PUSH1 0x0 PUSH1 0x20 DUP3 ADD SWAP1 POP DUP2 DUP2 SUB PUSH1 0x0 DUP4 ADD MSTORE PUSH3 0x5BE DUP2 PUSH3 0x57C JUMP JUMPDEST SWAP1 POP SWAP2 SWAP1 POP JUMP JUMPDEST PUSH1 0x0 DUP2 MLOAD SWAP1 POP SWAP2 SWAP1 POP JUMP JUMPDEST PUSH32 0x4E487B7100000000000000000000000000000000000000000000000000000000 PUSH1 0x0 MSTORE PUSH1 0x22 PUSH1 0x4 MSTORE PUSH1 0x24 PUSH1 0x0 REVERT JUMPDEST PUSH1 0x0 PUSH1 0x2 DUP3 DIV SWAP1 POP PUSH1 0x1 DUP3 AND DUP1 PUSH3 0x618 JUMPI PUSH1 0x7F DUP3 AND SWAP2 POP JUMPDEST PUSH1 0x20 DUP3 LT DUP2 SUB PUSH3 0x62E JUMPI PUSH3 0x62D PUSH3 0x5D0 JUMP JUMPDEST JUMPDEST POP SWAP2 SWAP1 POP JUMP JUMPDEST PUSH1 0x0 DUP2 SWAP1 POP DUP2 PUSH1 0x0 MSTORE PUSH1 0x20 PUSH1 0x0 KECCAK256 SWAP1 POP SWAP2 SWAP1 POP JUMP JUMPDEST PUSH1 0x0 PUSH1 0x20 PUSH1 0x1F DUP4 ADD DIV SWAP1 POP SWAP2 SWAP1 POP JUMP JUMPDEST PUSH1 0x0 DUP3 DUP3 SHL SWAP1 POP SWAP3 SWAP2 POP POP JUMP JUMPDEST PUSH1 0x0 PUSH1 0x8 DUP4 MUL PUSH3 0x698 PUSH32 0xFFFFFFFFFFFFFFFFFFFFFFFFFFFFFFFFFFFFFFFFFFFFFFFFFFFFFFFFFFFFFFFF DUP3 PUSH3 0x659 JUMP JUMPDEST PUSH3 0x6A4 DUP7 DUP4 PUSH3 0x659 JUMP JUMPDEST SWAP6 POP DUP1 NOT DUP5 AND SWAP4 POP DUP1 DUP7 AND DUP5 OR SWAP3 POP POP POP SWAP4 SWAP3 POP POP POP JUMP JUMPDEST PUSH1 0x0 DUP2 SWAP1 POP SWAP2 SWAP1 POP JUMP JUMPDEST PUSH1 0x0 PUSH3 0x6E7 PUSH3 0x6E1 PUSH3 0x6DB DUP5 PUSH3 0x1E7 JUMP JUMPDEST PUSH3 0x6BC JUMP JUMPDEST PUSH3 0x1E7 JUMP JUMPDEST SWAP1 POP SWAP2 SWAP1 POP JUMP JUMPDEST PUSH1 0x0 DUP2 SWAP1 POP SWAP2 SWAP1 POP JUMP JUMPDEST PUSH3 0x703 DUP4 PUSH3 0x6C6 JUMP JUMPDEST PUSH3 0x71B PUSH3 0x712 DUP3 PUSH3 0x6EE JUMP JUMPDEST DUP5 DUP5 SLOAD PUSH3 0x666 JUMP JUMPDEST DUP3 SSTORE POP POP POP POP JUMP JUMPDEST PUSH1 0x0 SWAP1 JUMP JUMPDEST PUSH3 0x732 PUSH3 0x723 JUMP JUMPDEST PUSH3 0x73F DUP2 DUP5 DUP5 PUSH3 0x6F8 JUMP JUMPDEST POP POP POP JUMP JUMPDEST JUMPDEST DUP2 DUP2 LT ISZERO PUSH3 0x767 JUMPI PUSH3 0x75B PUSH1 0x0 DUP3 PUSH3 0x728 JUMP JUMPDEST PUSH1 0x1 DUP2 ADD SWAP1 POP PUSH3 0x745 JUMP JUMPDEST POP POP JUMP JUMPDEST PUSH1 0x1F DUP3 GT ISZERO PUSH3 0x7B6 JUMPI PUSH3 0x780 DUP2 PUSH3 0x634 JUMP JUMPDEST PUSH3 0x78B DUP5 PUSH3 0x649 JUMP JUMPDEST DUP2 ADD PUSH1 0x20 DUP6 LT ISZERO PUSH3 0x79B JUMPI DUP2 SWAP1 POP JUMPDEST PUSH3 0x7B3 PUSH3 0x7AA DUP6 PUSH3 0x649 JUMP JUMPDEST DUP4 ADD DUP3 PUSH3 0x744 JUMP JUMPDEST POP POP JUMPDEST POP POP POP JUMP JUMPDEST PUSH1 0x0 DUP3 DUP3 SHR SWAP1 POP SWAP3 SWAP2 POP POP JUMP JUMPDEST PUSH1 0x0 PUSH3 0x7DB PUSH1 0x0 NOT DUP5 PUSH1 0x8 MUL PUSH3 0x7BB JUMP JUMPDEST NOT DUP1 DUP4 AND SWAP2 POP POP SWAP3 SWAP2 POP POP JUMP JUMPDEST PUSH1 0x0 PUSH3 0x7F6 DUP4 DUP4 PUSH3 0x7C8 JUMP JUMPDEST SWAP2 POP DUP3 PUSH1 0x2 MUL DUP3 OR SWAP1 POP SWAP3 SWAP2 POP POP JUMP JUMPDEST PUSH3 0x811 DUP3 PUSH3 0x5C5 JUMP JUMPDEST PUSH8 0xFFFFFFFFFFFFFFFF DUP2 GT ISZERO PUSH3 0x82D JUMPI PUSH3 0x82C PUSH3 0x23D JUMP JUMPDEST JUMPDEST PUSH3 0x839 DUP3 SLOAD PUSH3 0x5FF JUMP JUMPDEST PUSH3 0x846 DUP3 DUP3 DUP6 PUSH3 0x76B JUMP JUMPDEST PUSH1 0x0 PUSH1 0x20 SWAP1 POP PUSH1 0x1F DUP4 GT PUSH1 0x1 DUP2 EQ PUSH3 0x87E JUMPI PUSH1 0x0 DUP5 ISZERO PUSH3 0x869 JUMPI DUP3 DUP8 ADD MLOAD SWAP1 POP JUMPDEST PUSH3 0x875 DUP6 DUP3 PUSH3 0x7E8 JUMP JUMPDEST DUP7 SSTORE POP PUSH3 0x8E5 JUMP JUMPDEST PUSH1 0x1F NOT DUP5 AND PUSH3 0x88E DUP7 PUSH3 0x634 JUMP JUMPDEST PUSH1 0x0 JUMPDEST DUP3 DUP2 LT ISZERO PUSH3 0x8B8 JUMPI DUP5 DUP10 ADD MLOAD DUP3 SSTORE PUSH1 0x1 DUP3 ADD SWAP2 POP PUSH1 0x20 DUP6 ADD SWAP5 POP PUSH1 0x20 DUP2 ADD SWAP1 POP PUSH3 0x891 JUMP JUMPDEST DUP7 DUP4 LT ISZERO PUSH3 0x8D8 JUMPI DUP5 DUP10 ADD MLOAD PUSH3 0x8D4 PUSH1 0x1F DUP10 AND DUP3 PUSH3 0x7C8 JUMP JUMPDEST DUP4 SSTORE POP JUMPDEST PUSH1 0x1 PUSH1 0x2 DUP9 MUL ADD DUP9 SSTORE POP POP POP JUMPDEST POP POP POP POP POP POP JUMP JUMPDEST PUSH2 0x1A0A DUP1 PUSH3 0x8FD PUSH1 0x0 CODECOPY PUSH1 0x0 RETURN INVALID PUSH1 0x80 PUSH1 0x40 MSTORE PUSH1 0x4 CALLDATASIZE LT PUSH2 0x10D JUMPI PUSH1 0x0 CALLDATALOAD PUSH1 0xE0 SHR DUP1 PUSH4 0x65AC2320 GT PUSH2 0x95 JUMPI DUP1 PUSH4 0xAEAFCA2E GT PUSH2 0x64 JUMPI DUP1 PUSH4 0xAEAFCA2E EQ PUSH2 0x356 JUMPI DUP1 PUSH4 0xD0E30DB0 EQ PUSH2 0x381 JUMPI DUP1 PUSH4 0xD7BB99BA EQ PUSH2 0x3AC JUMPI DUP1 PUSH4 0xF3CCAAC0 EQ PUSH2 0x3B6 JUMPI DUP1 PUSH4 0xFBBF93A0 EQ PUSH2 0x3E1 JUMPI PUSH2 0x114 JUMP JUMPDEST DUP1 PUSH4 0x65AC2320 EQ PUSH2 0x2BE JUMPI DUP1 PUSH4 0x7284E416 EQ PUSH2 0x2E9 JUMPI DUP1 PUSH4 0x7D3D6522 EQ PUSH2 0x314 JUMPI DUP1 PUSH4 0xAC307773 EQ PUSH2 0x33F JUMPI PUSH2 0x114 JUMP JUMPDEST DUP1 PUSH4 0x3CB5D100 GT PUSH2 0xDC JUMPI DUP1 PUSH4 0x3CB5D100 EQ PUSH2 0x1C3 JUMPI DUP1 PUSH4 0x40193883 EQ PUSH2 0x200 JUMPI DUP1 PUSH4 0x42E94C90 EQ PUSH2 0x22B JUMPI DUP1 PUSH4 0x481C6A75 EQ PUSH2 0x268 JUMPI DUP1 PUSH4 0x5C6A0246 EQ PUSH2 0x293 JUMPI PUSH2 0x114 JUMP JUMPDEST DUP1 PUSH4 0x724FDA9 EQ PUSH2 0x119 JUMPI DUP1 PUSH4 0x133309B8 EQ PUSH2 0x144 JUMPI DUP1 PUSH4 0x29DCB0CF EQ PUSH2 0x16F JUMPI DUP1 PUSH4 0x35315D8D EQ PUSH2 0x19A JUMPI PUSH2 0x114 JUMP JUMPDEST CALLDATASIZE PUSH2 0x114 JUMPI STOP JUMPDEST PUSH1 0x0 DUP1 REVERT JUMPDEST CALLVALUE DUP1 ISZERO PUSH2 0x125 JUMPI PUSH1 0x0 DUP1 REVERT JUMPDEST POP PUSH2 0x12E PUSH2 0x416 JUMP JUMPDEST PUSH1 0x40 MLOAD PUSH2 0x13B SWAP2 SWAP1 PUSH2 0x120C JUMP JUMPDEST PUSH1 0x40 MLOAD DUP1 SWAP2 SUB SWAP1 RETURN JUMPDEST CALLVALUE DUP1 ISZERO PUSH2 0x150 JUMPI PUSH1 0x0 DUP1 REVERT JUMPDEST POP PUSH2 0x159 PUSH2 0x4A4 JUMP JUMPDEST PUSH1 0x40 MLOAD PUSH2 0x166 SWAP2 SWAP1 PUSH2 0x1247 JUMP JUMPDEST PUSH1 0x40 MLOAD DUP1 SWAP2 SUB SWAP1 RETURN JUMPDEST CALLVALUE DUP1 ISZERO PUSH2 0x17B JUMPI PUSH1 0x0 DUP1 REVERT JUMPDEST POP PUSH2 0x184 PUSH2 0x4AA JUMP JUMPDEST PUSH1 0x40 MLOAD PUSH2 0x191 SWAP2 SWAP1 PUSH2 0x1247 JUMP JUMPDEST PUSH1 0x40 MLOAD DUP1 SWAP2 SUB SWAP1 RETURN JUMPDEST CALLVALUE DUP1 ISZERO PUSH2 0x1A6 JUMPI PUSH1 0x0 DUP1 REVERT JUMPDEST POP PUSH2 0x1C1 PUSH1 0x4 DUP1 CALLDATASIZE SUB DUP2 ADD SWAP1 PUSH2 0x1BC SWAP2 SWAP1 PUSH2 0x1293 JUMP JUMPDEST PUSH2 0x4B0 JUMP JUMPDEST STOP JUMPDEST CALLVALUE DUP1 ISZERO PUSH2 0x1CF JUMPI PUSH1 0x0 DUP1 REVERT JUMPDEST POP PUSH2 0x1EA PUSH1 0x4 DUP1 CALLDATASIZE SUB DUP2 ADD SWAP1 PUSH2 0x1E5 SWAP2 SWAP1 PUSH2 0x1293 JUMP JUMPDEST PUSH2 0x854 JUMP JUMPDEST PUSH1 0x40 MLOAD PUSH2 0x1F7 SWAP2 SWAP1 PUSH2 0x1301 JUMP JUMPDEST PUSH1 0x40 MLOAD DUP1 SWAP2 SUB SWAP1 RETURN JUMPDEST CALLVALUE DUP1 ISZERO PUSH2 0x20C JUMPI PUSH1 0x0 DUP1 REVERT JUMPDEST POP PUSH2 0x215 PUSH2 0x893 JUMP JUMPDEST PUSH1 0x40 MLOAD PUSH2 0x222 SWAP2 SWAP1 PUSH2 0x1247 JUMP JUMPDEST PUSH1 0x40 MLOAD DUP1 SWAP2 SUB SWAP1 RETURN JUMPDEST CALLVALUE DUP1 ISZERO PUSH2 0x237 JUMPI PUSH1 0x0 DUP1 REVERT JUMPDEST POP PUSH2 0x252 PUSH1 0x4 DUP1 CALLDATASIZE SUB DUP2 ADD SWAP1 PUSH2 0x24D SWAP2 SWAP1 PUSH2 0x1348 JUMP JUMPDEST PUSH2 0x899 JUMP JUMPDEST PUSH1 0x40 MLOAD PUSH2 0x25F SWAP2 SWAP1 PUSH2 0x1247 JUMP JUMPDEST PUSH1 0x40 MLOAD DUP1 SWAP2 SUB SWAP1 RETURN JUMPDEST CALLVALUE DUP1 ISZERO PUSH2 0x274 JUMPI PUSH1 0x0 DUP1 REVERT JUMPDEST POP PUSH2 0x27D PUSH2 0x8B1 JUMP JUMPDEST PUSH1 0x40 MLOAD PUSH2 0x28A SWAP2 SWAP1 PUSH2 0x1301 JUMP JUMPDEST PUSH1 0x40 MLOAD DUP1 SWAP2 SUB SWAP1 RETURN JUMPDEST CALLVALUE DUP1 ISZERO PUSH2 0x29F JUMPI PUSH1 0x0 DUP1 REVERT JUMPDEST POP PUSH2 0x2A8 PUSH2 0x8D7 JUMP JUMPDEST PUSH1 0x40 MLOAD PUSH2 0x2B5 SWAP2 SWAP1 PUSH2 0x1390 JUMP JUMPDEST PUSH1 0x40 MLOAD DUP1 SWAP2 SUB SWAP1 RETURN JUMPDEST CALLVALUE DUP1 ISZERO PUSH2 0x2CA JUMPI PUSH1 0x0 DUP1 REVERT JUMPDEST POP PUSH2 0x2D3 PUSH2 0x8EA JUMP JUMPDEST PUSH1 0x40 MLOAD PUSH2 0x2E0 SWAP2 SWAP1 PUSH2 0x120C JUMP JUMPDEST PUSH1 0x40 MLOAD DUP1 SWAP2 SUB SWAP1 RETURN JUMPDEST CALLVALUE DUP1 ISZERO PUSH2 0x2F5 JUMPI PUSH1 0x0 DUP1 REVERT JUMPDEST POP PUSH2 0x2FE PUSH2 0x978 JUMP JUMPDEST PUSH1 0x40 MLOAD PUSH2 0x30B SWAP2 SWAP1 PUSH2 0x120C JUMP JUMPDEST PUSH1 0x40 MLOAD DUP1 SWAP2 SUB SWAP1 RETURN JUMPDEST CALLVALUE DUP1 ISZERO PUSH2 0x320 JUMPI PUSH1 0x0 DUP1 REVERT JUMPDEST POP PUSH2 0x329 PUSH2 0xA06 JUMP JUMPDEST PUSH1 0x40 MLOAD PUSH2 0x336 SWAP2 SWAP1 PUSH2 0x1390 JUMP JUMPDEST PUSH1 0x40 MLOAD DUP1 SWAP2 SUB SWAP1 RETURN JUMPDEST CALLVALUE DUP1 ISZERO PUSH2 0x34B JUMPI PUSH1 0x0 DUP1 REVERT JUMPDEST POP PUSH2 0x354 PUSH2 0xA19 JUMP JUMPDEST STOP JUMPDEST CALLVALUE DUP1 ISZERO PUSH2 0x362 JUMPI PUSH1 0x0 DUP1 REVERT JUMPDEST POP PUSH2 0x36B PUSH2 0xC4C JUMP JUMPDEST PUSH1 0x40 MLOAD PUSH2 0x378 SWAP2 SWAP1 PUSH2 0x1247 JUMP JUMPDEST PUSH1 0x40 MLOAD DUP1 SWAP2 SUB SWAP1 RETURN JUMPDEST CALLVALUE DUP1 ISZERO PUSH2 0x38D JUMPI PUSH1 0x0 DUP1 REVERT JUMPDEST POP PUSH2 0x396 PUSH2 0xC52 JUMP JUMPDEST PUSH1 0x40 MLOAD PUSH2 0x3A3 SWAP2 SWAP1 PUSH2 0x1247 JUMP JUMPDEST PUSH1 0x40 MLOAD DUP1 SWAP2 SUB SWAP1 RETURN JUMPDEST PUSH2 0x3B4 PUSH2 0xC58 JUMP JUMPDEST STOP JUMPDEST CALLVALUE DUP1 ISZERO PUSH2 0x3C2 JUMPI PUSH1 0x0 DUP1 REVERT JUMPDEST POP PUSH2 0x3CB PUSH2 0xE6B JUMP JUMPDEST PUSH1 0x40 MLOAD PUSH2 0x3D8 SWAP2 SWAP1 PUSH2 0x120C JUMP JUMPDEST PUSH1 0x40 MLOAD DUP1 SWAP2 SUB SWAP1 RETURN JUMPDEST CALLVALUE DUP1 ISZERO PUSH2 0x3ED JUMPI PUSH1 0x0 DUP1 REVERT JUMPDEST POP PUSH2 0x3F6 PUSH2 0xEF9 JUMP JUMPDEST PUSH1 0x40 MLOAD PUSH2 0x40D SWAP12 SWAP11 SWAP10 SWAP9 SWAP8 SWAP7 SWAP6 SWAP5 SWAP4 SWAP3 SWAP2 SWAP1 PUSH2 0x13AB JUMP JUMPDEST PUSH1 0x40 MLOAD DUP1 SWAP2 SUB SWAP1 RETURN JUMPDEST PUSH1 0xB DUP1 SLOAD PUSH2 0x423 SWAP1 PUSH2 0x149A JUMP JUMPDEST DUP1 PUSH1 0x1F ADD PUSH1 0x20 DUP1 SWAP2 DIV MUL PUSH1 0x20 ADD PUSH1 0x40 MLOAD SWAP1 DUP2 ADD PUSH1 0x40 MSTORE DUP1 SWAP3 SWAP2 SWAP1 DUP2 DUP2 MSTORE PUSH1 0x20 ADD DUP3 DUP1 SLOAD PUSH2 0x44F SWAP1 PUSH2 0x149A JUMP JUMPDEST DUP1 ISZERO PUSH2 0x49C JUMPI DUP1 PUSH1 0x1F LT PUSH2 0x471 JUMPI PUSH2 0x100 DUP1 DUP4 SLOAD DIV MUL DUP4 MSTORE SWAP2 PUSH1 0x20 ADD SWAP2 PUSH2 0x49C JUMP JUMPDEST DUP3 ADD SWAP2 SWAP1 PUSH1 0x0 MSTORE PUSH1 0x20 PUSH1 0x0 KECCAK256 SWAP1 JUMPDEST DUP2 SLOAD DUP2 MSTORE SWAP1 PUSH1 0x1 ADD SWAP1 PUSH1 0x20 ADD DUP1 DUP4 GT PUSH2 0x47F JUMPI DUP3 SWAP1 SUB PUSH1 0x1F AND DUP3 ADD SWAP2 JUMPDEST POP POP POP POP POP DUP2 JUMP JUMPDEST PUSH1 0x8 SLOAD DUP2 JUMP JUMPDEST PUSH1 0x4 SLOAD DUP2 JUMP JUMPDEST PUSH2 0x4B8 PUSH2 0x112C JUMP JUMPDEST PUSH1 0x4 SLOAD TIMESTAMP LT ISZERO PUSH2 0x4FD JUMPI PUSH1 0x40 MLOAD PUSH32 0x8C379A000000000000000000000000000000000000000000000000000000000 DUP2 MSTORE PUSH1 0x4 ADD PUSH2 0x4F4 SWAP1 PUSH2 0x1517 JUMP JUMPDEST PUSH1 0x40 MLOAD DUP1 SWAP2 SUB SWAP1 REVERT JUMPDEST PUSH1 0x5 PUSH1 0x0 SWAP1 SLOAD SWAP1 PUSH2 0x100 EXP SWAP1 DIV PUSH1 0xFF AND ISZERO PUSH2 0x54D JUMPI PUSH1 0x40 MLOAD PUSH32 0x8C379A000000000000000000000000000000000000000000000000000000000 DUP2 MSTORE PUSH1 0x4 ADD PUSH2 0x544 SWAP1 PUSH2 0x15A9 JUMP JUMPDEST PUSH1 0x40 MLOAD DUP1 SWAP2 SUB SWAP1 REVERT JUMPDEST PUSH1 0x7 DUP1 SLOAD SWAP1 POP PUSH1 0x8 SLOAD LT PUSH2 0x596 JUMPI PUSH1 0x40 MLOAD PUSH32 0x8C379A000000000000000000000000000000000000000000000000000000000 DUP2 MSTORE PUSH1 0x4 ADD PUSH2 0x58D SWAP1 PUSH2 0x1615 JUMP JUMPDEST PUSH1 0x40 MLOAD DUP1 SWAP2 SUB SWAP1 REVERT JUMPDEST PUSH1 0x0 JUMPDEST PUSH1 0x7 DUP1 SLOAD SWAP1 POP PUSH1 0x8 SLOAD LT DUP1 ISZERO PUSH2 0x5AE JUMPI POP DUP2 DUP2 LT JUMPDEST ISZERO PUSH2 0x738 JUMPI PUSH1 0x0 PUSH1 0x7 PUSH1 0x8 SLOAD DUP2 SLOAD DUP2 LT PUSH2 0x5CB JUMPI PUSH2 0x5CA PUSH2 0x1635 JUMP JUMPDEST JUMPDEST SWAP1 PUSH1 0x0 MSTORE PUSH1 0x20 PUSH1 0x0 KECCAK256 ADD PUSH1 0x0 SWAP1 SLOAD SWAP1 PUSH2 0x100 EXP SWAP1 DIV PUSH20 0xFFFFFFFFFFFFFFFFFFFFFFFFFFFFFFFFFFFFFFFF AND SWAP1 POP PUSH1 0x0 PUSH1 0x6 PUSH1 0x0 DUP4 PUSH20 0xFFFFFFFFFFFFFFFFFFFFFFFFFFFFFFFFFFFFFFFF AND PUSH20 0xFFFFFFFFFFFFFFFFFFFFFFFFFFFFFFFFFFFFFFFF AND DUP2 MSTORE PUSH1 0x20 ADD SWAP1 DUP2 MSTORE PUSH1 0x20 ADD PUSH1 0x0 KECCAK256 SLOAD SWAP1 POP PUSH1 0x0 DUP2 GT ISZERO PUSH2 0x70B JUMPI PUSH1 0x0 PUSH1 0x6 PUSH1 0x0 DUP5 PUSH20 0xFFFFFFFFFFFFFFFFFFFFFFFFFFFFFFFFFFFFFFFF AND PUSH20 0xFFFFFFFFFFFFFFFFFFFFFFFFFFFFFFFFFFFFFFFF AND DUP2 MSTORE PUSH1 0x20 ADD SWAP1 DUP2 MSTORE PUSH1 0x20 ADD PUSH1 0x0 KECCAK256 DUP2 SWAP1 SSTORE POP DUP2 PUSH20 0xFFFFFFFFFFFFFFFFFFFFFFFFFFFFFFFFFFFFFFFF AND PUSH2 0x8FC DUP3 SWAP1 DUP2 ISZERO MUL SWAP1 PUSH1 0x40 MLOAD PUSH1 0x0 PUSH1 0x40 MLOAD DUP1 DUP4 SUB DUP2 DUP6 DUP9 DUP9 CALL SWAP4 POP POP POP POP ISZERO DUP1 ISZERO PUSH2 0x6D0 JUMPI RETURNDATASIZE PUSH1 0x0 DUP1 RETURNDATACOPY RETURNDATASIZE PUSH1 0x0 REVERT JUMPDEST POP PUSH32 0xA171B6942063C6F2800CE40A780EDCE37BAA2B618571B11EEDD1E69E626E7D76 DUP3 DUP3 PUSH1 0x40 MLOAD PUSH2 0x702 SWAP3 SWAP2 SWAP1 PUSH2 0x1664 JUMP JUMPDEST PUSH1 0x40 MLOAD DUP1 SWAP2 SUB SWAP1 LOG1 JUMPDEST PUSH1 0x8 PUSH1 0x0 DUP2 SLOAD DUP1 SWAP3 SWAP2 SWAP1 PUSH2 0x71E SWAP1 PUSH2 0x16BC JUMP JUMPDEST SWAP2 SWAP1 POP SSTORE POP DUP3 DUP1 PUSH2 0x72E SWAP1 PUSH2 0x16BC JUMP JUMPDEST SWAP4 POP POP POP POP PUSH2 0x599 JUMP JUMPDEST PUSH1 0x0 PUSH7 0x2386F26FC10000 SWAP1 POP DUP1 PUSH1 0x9 SLOAD LT PUSH2 0x7B2 JUMPI CALLER PUSH20 0xFFFFFFFFFFFFFFFFFFFFFFFFFFFFFFFFFFFFFFFF AND PUSH2 0x8FC DUP3 SWAP1 DUP2 ISZERO MUL SWAP1 PUSH1 0x40 MLOAD PUSH1 0x0 PUSH1 0x40 MLOAD DUP1 DUP4 SUB DUP2 DUP6 DUP9 DUP9 CALL SWAP4 POP POP POP POP ISZERO DUP1 ISZERO PUSH2 0x793 JUMPI RETURNDATASIZE PUSH1 0x0 DUP1 RETURNDATACOPY RETURNDATASIZE PUSH1 0x0 REVERT JUMPDEST POP DUP1 PUSH1 0x9 PUSH1 0x0 DUP3 DUP3 SLOAD PUSH2 0x7A6 SWAP2 SWAP1 PUSH2 0x1704 JUMP JUMPDEST SWAP3 POP POP DUP2 SWAP1 SSTORE POP PUSH2 0x810 JUMP JUMPDEST PUSH1 0x0 PUSH1 0x9 SLOAD GT ISZERO PUSH2 0x80F JUMPI CALLER PUSH20 0xFFFFFFFFFFFFFFFFFFFFFFFFFFFFFFFFFFFFFFFF AND PUSH2 0x8FC PUSH1 0x9 SLOAD SWAP1 DUP2 ISZERO MUL SWAP1 PUSH1 0x40 MLOAD PUSH1 0x0 PUSH1 0x40 MLOAD DUP1 DUP4 SUB DUP2 DUP6 DUP9 DUP9 CALL SWAP4 POP POP POP POP ISZERO DUP1 ISZERO PUSH2 0x805 JUMPI RETURNDATASIZE PUSH1 0x0 DUP1 RETURNDATACOPY RETURNDATASIZE PUSH1 0x0 REVERT JUMPDEST POP PUSH1 0x0 PUSH1 0x9 DUP2 SWAP1 SSTORE POP JUMPDEST JUMPDEST PUSH32 0x46D3850B571318301CC4E460BA87545DD2BDD6D1F8E6FB10C4C4C8F57E1A826C DUP3 PUSH1 0x40 MLOAD PUSH2 0x83F SWAP2 SWAP1 PUSH2 0x1247 JUMP JUMPDEST PUSH1 0x40 MLOAD DUP1 SWAP2 SUB SWAP1 LOG1 POP POP PUSH2 0x851 PUSH2 0x1172 JUMP JUMPDEST POP JUMP JUMPDEST PUSH1 0x7 DUP2 DUP2 SLOAD DUP2 LT PUSH2 0x864 JUMPI PUSH1 0x0 DUP1 REVERT JUMPDEST SWAP1 PUSH1 0x0 MSTORE PUSH1 0x20 PUSH1 0x0 KECCAK256 ADD PUSH1 0x0 SWAP2 POP SLOAD SWAP1 PUSH2 0x100 EXP SWAP1 DIV PUSH20 0xFFFFFFFFFFFFFFFFFFFFFFFFFFFFFFFFFFFFFFFF AND DUP2 JUMP JUMPDEST PUSH1 0x2 SLOAD DUP2 JUMP JUMPDEST PUSH1 0x6 PUSH1 0x20 MSTORE DUP1 PUSH1 0x0 MSTORE PUSH1 0x40 PUSH1 0x0 KECCAK256 PUSH1 0x0 SWAP2 POP SWAP1 POP SLOAD DUP2 JUMP JUMPDEST PUSH1 0x1 PUSH1 0x0 SWAP1 SLOAD SWAP1 PUSH2 0x100 EXP SWAP1 DIV PUSH20 0xFFFFFFFFFFFFFFFFFFFFFFFFFFFFFFFFFFFFFFFF AND DUP2 JUMP JUMPDEST PUSH1 0x5 PUSH1 0x1 SWAP1 SLOAD SWAP1 PUSH2 0x100 EXP SWAP1 DIV PUSH1 0xFF AND DUP2 JUMP JUMPDEST PUSH1 0xC DUP1 SLOAD PUSH2 0x8F7 SWAP1 PUSH2 0x149A JUMP JUMPDEST DUP1 PUSH1 0x1F ADD PUSH1 0x20 DUP1 SWAP2 DIV MUL PUSH1 0x20 ADD PUSH1 0x40 MLOAD SWAP1 DUP2 ADD PUSH1 0x40 MSTORE DUP1 SWAP3 SWAP2 SWAP1 DUP2 DUP2 MSTORE PUSH1 0x20 ADD DUP3 DUP1 SLOAD PUSH2 0x923 SWAP1 PUSH2 0x149A JUMP JUMPDEST DUP1 ISZERO PUSH2 0x970 JUMPI DUP1 PUSH1 0x1F LT PUSH2 0x945 JUMPI PUSH2 0x100 DUP1 DUP4 SLOAD DIV MUL DUP4 MSTORE SWAP2 PUSH1 0x20 ADD SWAP2 PUSH2 0x970 JUMP JUMPDEST DUP3 ADD SWAP2 SWAP1 PUSH1 0x0 MSTORE PUSH1 0x20 PUSH1 0x0 KECCAK256 SWAP1 JUMPDEST DUP2 SLOAD DUP2 MSTORE SWAP1 PUSH1 0x1 ADD SWAP1 PUSH1 0x20 ADD DUP1 DUP4 GT PUSH2 0x953 JUMPI DUP3 SWAP1 SUB PUSH1 0x1F AND DUP3 ADD SWAP2 JUMPDEST POP POP POP POP POP DUP2 JUMP JUMPDEST PUSH1 0xD DUP1 SLOAD PUSH2 0x985 SWAP1 PUSH2 0x149A JUMP JUMPDEST DUP1 PUSH1 0x1F ADD PUSH1 0x20 DUP1 SWAP2 DIV MUL PUSH1 0x20 ADD PUSH1 0x40 MLOAD SWAP1 DUP2 ADD PUSH1 0x40 MSTORE DUP1 SWAP3 SWAP2 SWAP1 DUP2 DUP2 MSTORE PUSH1 0x20 ADD DUP3 DUP1 SLOAD PUSH2 0x9B1 SWAP1 PUSH2 0x149A JUMP JUMPDEST DUP1 ISZERO PUSH2 0x9FE JUMPI DUP1 PUSH1 0x1F LT PUSH2 0x9D3 JUMPI PUSH2 0x100 DUP1 DUP4 SLOAD DIV MUL DUP4 MSTORE SWAP2 PUSH1 0x20 ADD SWAP2 PUSH2 0x9FE JUMP JUMPDEST DUP3 ADD SWAP2 SWAP1 PUSH1 0x0 MSTORE PUSH1 0x20 PUSH1 0x0 KECCAK256 SWAP1 JUMPDEST DUP2 SLOAD DUP2 MSTORE SWAP1 PUSH1 0x1 ADD SWAP1 PUSH1 0x20 ADD DUP1 DUP4 GT PUSH2 0x9E1 JUMPI DUP3 SWAP1 SUB PUSH1 0x1F AND DUP3 ADD SWAP2 JUMPDEST POP POP POP POP POP DUP2 JUMP JUMPDEST PUSH1 0x5 PUSH1 0x0 SWAP1 SLOAD SWAP1 PUSH2 0x100 EXP SWAP1 DIV PUSH1 0xFF AND DUP2 JUMP JUMPDEST PUSH1 0x1 PUSH1 0x0 SWAP1 SLOAD SWAP1 PUSH2 0x100 EXP SWAP1 DIV PUSH20 0xFFFFFFFFFFFFFFFFFFFFFFFFFFFFFFFFFFFFFFFF AND PUSH20 0xFFFFFFFFFFFFFFFFFFFFFFFFFFFFFFFFFFFFFFFF AND CALLER PUSH20 0xFFFFFFFFFFFFFFFFFFFFFFFFFFFFFFFFFFFFFFFF AND EQ PUSH2 0xAA9 JUMPI PUSH1 0x40 MLOAD PUSH32 0x8C379A000000000000000000000000000000000000000000000000000000000 DUP2 MSTORE PUSH1 0x4 ADD PUSH2 0xAA0 SWAP1 PUSH2 0x17AA JUMP JUMPDEST PUSH1 0x40 MLOAD DUP1 SWAP2 SUB SWAP1 REVERT JUMPDEST PUSH2 0xAB1 PUSH2 0x112C JUMP JUMPDEST PUSH1 0x5 PUSH1 0x0 SWAP1 SLOAD SWAP1 PUSH2 0x100 EXP SWAP1 DIV PUSH1 0xFF AND PUSH2 0xB00 JUMPI PUSH1 0x40 MLOAD PUSH32 0x8C379A000000000000000000000000000000000000000000000000000000000 DUP2 MSTORE PUSH1 0x4 ADD PUSH2 0xAF7 SWAP1 PUSH2 0x1816 JUMP JUMPDEST PUSH1 0x40 MLOAD DUP1 SWAP2 SUB SWAP1 REVERT JUMPDEST PUSH1 0x5 PUSH1 0x1 SWAP1 SLOAD SWAP1 PUSH2 0x100 EXP SWAP1 DIV PUSH1 0xFF AND ISZERO PUSH2 0xB50 JUMPI PUSH1 0x40 MLOAD PUSH32 0x8C379A000000000000000000000000000000000000000000000000000000000 DUP2 MSTORE PUSH1 0x4 ADD PUSH2 0xB47 SWAP1 PUSH2 0x1882 JUMP JUMPDEST PUSH1 0x40 MLOAD DUP1 SWAP2 SUB SWAP1 REVERT JUMPDEST PUSH1 0x1 PUSH1 0x5 PUSH1 0x1 PUSH2 0x100 EXP DUP2 SLOAD DUP2 PUSH1 0xFF MUL NOT AND SWAP1 DUP4 ISZERO ISZERO MUL OR SWAP1 SSTORE POP PUSH1 0x0 PUSH1 0x9 SLOAD SELFBALANCE PUSH2 0xB7B SWAP2 SWAP1 PUSH2 0x1704 JUMP JUMPDEST SWAP1 POP PUSH1 0x1 PUSH1 0x0 SWAP1 SLOAD SWAP1 PUSH2 0x100 EXP SWAP1 DIV PUSH20 0xFFFFFFFFFFFFFFFFFFFFFFFFFFFFFFFFFFFFFFFF AND PUSH20 0xFFFFFFFFFFFFFFFFFFFFFFFFFFFFFFFFFFFFFFFF AND PUSH2 0x8FC DUP3 SWAP1 DUP2 ISZERO MUL SWAP1 PUSH1 0x40 MLOAD PUSH1 0x0 PUSH1 0x40 MLOAD DUP1 DUP4 SUB DUP2 DUP6 DUP9 DUP9 CALL SWAP4 POP POP POP POP ISZERO DUP1 ISZERO PUSH2 0xBE5 JUMPI RETURNDATASIZE PUSH1 0x0 DUP1 RETURNDATACOPY RETURNDATASIZE PUSH1 0x0 REVERT JUMPDEST POP PUSH32 0xA65A8B4F7F65A1063243D7F7E9E4DA00FF767599ACF21549EF2548A45D1695AE PUSH1 0x1 PUSH1 0x0 SWAP1 SLOAD SWAP1 PUSH2 0x100 EXP SWAP1 DIV PUSH20 0xFFFFFFFFFFFFFFFFFFFFFFFFFFFFFFFFFFFFFFFF AND DUP3 PUSH1 0x40 MLOAD PUSH2 0xC39 SWAP3 SWAP2 SWAP1 PUSH2 0x1664 JUMP JUMPDEST PUSH1 0x40 MLOAD DUP1 SWAP2 SUB SWAP1 LOG1 POP PUSH2 0xC4A PUSH2 0x1172 JUMP JUMPDEST JUMP JUMPDEST PUSH1 0x3 SLOAD DUP2 JUMP JUMPDEST PUSH1 0x9 SLOAD DUP2 JUMP JUMPDEST PUSH2 0xC60 PUSH2 0x112C JUMP JUMPDEST PUSH1 0x4 SLOAD TIMESTAMP LT PUSH2 0xCA4 JUMPI PUSH1 0x40 MLOAD PUSH32 0x8C379A000000000000000000000000000000000000000000000000000000000 DUP2 MSTORE PUSH1 0x4 ADD PUSH2 0xC9B SWAP1 PUSH2 0x18EE JUMP JUMPDEST PUSH1 0x40 MLOAD DUP1 SWAP2 SUB SWAP1 REVERT JUMPDEST PUSH1 0x0 CALLVALUE GT PUSH2 0xCE7 JUMPI PUSH1 0x40 MLOAD PUSH32 0x8C379A000000000000000000000000000000000000000000000000000000000 DUP2 MSTORE PUSH1 0x4 ADD PUSH2 0xCDE SWAP1 PUSH2 0x1980 JUMP JUMPDEST PUSH1 0x40 MLOAD DUP1 SWAP2 SUB SWAP1 REVERT JUMPDEST PUSH1 0x0 PUSH1 0x6 PUSH1 0x0 CALLER PUSH20 0xFFFFFFFFFFFFFFFFFFFFFFFFFFFFFFFFFFFFFFFF AND PUSH20 0xFFFFFFFFFFFFFFFFFFFFFFFFFFFFFFFFFFFFFFFF AND DUP2 MSTORE PUSH1 0x20 ADD SWAP1 DUP2 MSTORE PUSH1 0x20 ADD PUSH1 0x0 KECCAK256 SLOAD SUB PUSH2 0xD92 JUMPI PUSH1 0x7 CALLER SWAP1 DUP1 PUSH1 0x1 DUP2 SLOAD ADD DUP1 DUP3 SSTORE DUP1 SWAP2 POP POP PUSH1 0x1 SWAP1 SUB SWAP1 PUSH1 0x0 MSTORE PUSH1 0x20 PUSH1 0x0 KECCAK256 ADD PUSH1 0x0 SWAP1 SWAP2 SWAP1 SWAP2 SWAP1 SWAP2 PUSH2 0x100 EXP DUP2 SLOAD DUP2 PUSH20 0xFFFFFFFFFFFFFFFFFFFFFFFFFFFFFFFFFFFFFFFF MUL NOT AND SWAP1 DUP4 PUSH20 0xFFFFFFFFFFFFFFFFFFFFFFFFFFFFFFFFFFFFFFFF AND MUL OR SWAP1 SSTORE POP JUMPDEST CALLVALUE PUSH1 0x6 PUSH1 0x0 CALLER PUSH20 0xFFFFFFFFFFFFFFFFFFFFFFFFFFFFFFFFFFFFFFFF AND PUSH20 0xFFFFFFFFFFFFFFFFFFFFFFFFFFFFFFFFFFFFFFFF AND DUP2 MSTORE PUSH1 0x20 ADD SWAP1 DUP2 MSTORE PUSH1 0x20 ADD PUSH1 0x0 KECCAK256 PUSH1 0x0 DUP3 DUP3 SLOAD PUSH2 0xDE1 SWAP2 SWAP1 PUSH2 0x19A0 JUMP JUMPDEST SWAP3 POP POP DUP2 SWAP1 SSTORE POP CALLVALUE PUSH1 0x3 PUSH1 0x0 DUP3 DUP3 SLOAD PUSH2 0xDFA SWAP2 SWAP1 PUSH2 0x19A0 JUMP JUMPDEST SWAP3 POP POP DUP2 SWAP1 SSTORE POP PUSH32 0x1BB460CCAAF70FBACFEC17A376F8ACBD278C1405590FFCC8EBE4B88DAF4F64AD CALLER CALLVALUE PUSH1 0x40 MLOAD PUSH2 0xE32 SWAP3 SWAP2 SWAP1 PUSH2 0x1664 JUMP JUMPDEST PUSH1 0x40 MLOAD DUP1 SWAP2 SUB SWAP1 LOG1 PUSH1 0x2 SLOAD PUSH1 0x3 SLOAD LT PUSH2 0xE61 JUMPI PUSH1 0x1 PUSH1 0x5 PUSH1 0x0 PUSH2 0x100 EXP DUP2 SLOAD DUP2 PUSH1 0xFF MUL NOT AND SWAP1 DUP4 ISZERO ISZERO MUL OR SWAP1 SSTORE POP JUMPDEST PUSH2 0xE69 PUSH2 0x1172 JUMP JUMPDEST JUMP JUMPDEST PUSH1 0xA DUP1 SLOAD PUSH2 0xE78 SWAP1 PUSH2 0x149A JUMP JUMPDEST DUP1 PUSH1 0x1F ADD PUSH1 0x20 DUP1 SWAP2 DIV MUL PUSH1 0x20 ADD PUSH1 0x40 MLOAD SWAP1 DUP2 ADD PUSH1 0x40 MSTORE DUP1 SWAP3 SWAP2 SWAP1 DUP2 DUP2 MSTORE PUSH1 0x20 ADD DUP3 DUP1 SLOAD PUSH2 0xEA4 SWAP1 PUSH2 0x149A JUMP JUMPDEST DUP1 ISZERO PUSH2 0xEF1 JUMPI DUP1 PUSH1 0x1F LT PUSH2 0xEC6 JUMPI PUSH2 0x100 DUP1 DUP4 SLOAD DIV MUL DUP4 MSTORE SWAP2 PUSH1 0x20 ADD SWAP2 PUSH2 0xEF1 JUMP JUMPDEST DUP3 ADD SWAP2 SWAP1 PUSH1 0x0 MSTORE PUSH1 0x20 PUSH1 0x0 KECCAK256 SWAP1 JUMPDEST DUP2 SLOAD DUP2 MSTORE SWAP1 PUSH1 0x1 ADD SWAP1 PUSH1 0x20 ADD DUP1 DUP4 GT PUSH2 0xED4 JUMPI DUP3 SWAP1 SUB PUSH1 0x1F AND DUP3 ADD SWAP2 JUMPDEST POP POP POP POP POP DUP2 JUMP JUMPDEST PUSH1 0x0 DUP1 PUSH1 0x0 DUP1 PUSH1 0x0 DUP1 PUSH1 0x0 DUP1 PUSH1 0x60 DUP1 PUSH1 0x60 PUSH1 0x1 PUSH1 0x0 SWAP1 SLOAD SWAP1 PUSH2 0x100 EXP SWAP1 DIV PUSH20 0xFFFFFFFFFFFFFFFFFFFFFFFFFFFFFFFFFFFFFFFF AND PUSH1 0x2 SLOAD PUSH1 0x3 SLOAD PUSH1 0x4 SLOAD PUSH1 0x5 PUSH1 0x0 SWAP1 SLOAD SWAP1 PUSH2 0x100 EXP SWAP1 DIV PUSH1 0xFF AND PUSH1 0x5 PUSH1 0x1 SWAP1 SLOAD SWAP1 PUSH2 0x100 EXP SWAP1 DIV PUSH1 0xFF AND PUSH1 0x8 SLOAD PUSH1 0x7 DUP1 SLOAD SWAP1 POP PUSH1 0xB PUSH1 0xC PUSH1 0xD DUP3 DUP1 SLOAD PUSH2 0xF71 SWAP1 PUSH2 0x149A JUMP JUMPDEST DUP1 PUSH1 0x1F ADD PUSH1 0x20 DUP1 SWAP2 DIV MUL PUSH1 0x20 ADD PUSH1 0x40 MLOAD SWAP1 DUP2 ADD PUSH1 0x40 MSTORE DUP1 SWAP3 SWAP2 SWAP1 DUP2 DUP2 MSTORE PUSH1 0x20 ADD DUP3 DUP1 SLOAD PUSH2 0xF9D SWAP1 PUSH2 0x149A JUMP JUMPDEST DUP1 ISZERO PUSH2 0xFEA JUMPI DUP1 PUSH1 0x1F LT PUSH2 0xFBF JUMPI PUSH2 0x100 DUP1 DUP4 SLOAD DIV MUL DUP4 MSTORE SWAP2 PUSH1 0x20 ADD SWAP2 PUSH2 0xFEA JUMP JUMPDEST DUP3 ADD SWAP2 SWAP1 PUSH1 0x0 MSTORE PUSH1 0x20 PUSH1 0x0 KECCAK256 SWAP1 JUMPDEST DUP2 SLOAD DUP2 MSTORE SWAP1 PUSH1 0x1 ADD SWAP1 PUSH1 0x20 ADD DUP1 DUP4 GT PUSH2 0xFCD JUMPI DUP3 SWAP1 SUB PUSH1 0x1F AND DUP3 ADD SWAP2 JUMPDEST POP POP POP POP POP SWAP3 POP DUP2 DUP1 SLOAD PUSH2 0xFFD SWAP1 PUSH2 0x149A JUMP JUMPDEST DUP1 PUSH1 0x1F ADD PUSH1 0x20 DUP1 SWAP2 DIV MUL PUSH1 0x20 ADD PUSH1 0x40 MLOAD SWAP1 DUP2 ADD PUSH1 0x40 MSTORE DUP1 SWAP3 SWAP2 SWAP1 DUP2 DUP2 MSTORE PUSH1 0x20 ADD DUP3 DUP1 SLOAD PUSH2 0x1029 SWAP1 PUSH2 0x149A JUMP JUMPDEST DUP1 ISZERO PUSH2 0x1076 JUMPI DUP1 PUSH1 0x1F LT PUSH2 0x104B JUMPI PUSH2 0x100 DUP1 DUP4 SLOAD DIV MUL DUP4 MSTORE SWAP2 PUSH1 0x20 ADD SWAP2 PUSH2 0x1076 JUMP JUMPDEST DUP3 ADD SWAP2 SWAP1 PUSH1 0x0 MSTORE PUSH1 0x20 PUSH1 0x0 KECCAK256 SWAP1 JUMPDEST DUP2 SLOAD DUP2 MSTORE SWAP1 PUSH1 0x1 ADD SWAP1 PUSH1 0x20 ADD DUP1 DUP4 GT PUSH2 0x1059 JUMPI DUP3 SWAP1 SUB PUSH1 0x1F AND DUP3 ADD SWAP2 JUMPDEST POP POP POP POP POP SWAP2 POP DUP1 DUP1 SLOAD PUSH2 0x1089 SWAP1 PUSH2 0x149A JUMP JUMPDEST DUP1 PUSH1 0x1F ADD PUSH1 0x20 DUP1 SWAP2 DIV MUL PUSH1 0x20 ADD PUSH1 0x40 MLOAD SWAP1 DUP2 ADD PUSH1 0x40 MSTORE DUP1 SWAP3 SWAP2 SWAP1 DUP2 DUP2 MSTORE PUSH1 0x20 ADD DUP3 DUP1 SLOAD PUSH2 0x10B5 SWAP1 PUSH2 0x149A JUMP JUMPDEST DUP1 ISZERO PUSH2 0x1102 JUMPI DUP1 PUSH1 0x1F LT PUSH2 0x10D7 JUMPI PUSH2 0x100 DUP1 DUP4 SLOAD DIV MUL DUP4 MSTORE SWAP2 PUSH1 0x20 ADD SWAP2 PUSH2 0x1102 JUMP JUMPDEST DUP3 ADD SWAP2 SWAP1 PUSH1 0x0 MSTORE PUSH1 0x20 PUSH1 0x0 KECCAK256 SWAP1 JUMPDEST DUP2 SLOAD DUP2 MSTORE SWAP1 PUSH1 0x1 ADD SWAP1 PUSH1 0x20 ADD DUP1 DUP4 GT PUSH2 0x10E5 JUMPI DUP3 SWAP1 SUB PUSH1 0x1F AND DUP3 ADD SWAP2 JUMPDEST POP POP POP POP POP SWAP1 POP SWAP11 POP SWAP11 POP SWAP11 POP SWAP11 POP SWAP11 POP SWAP11 POP SWAP11 POP SWAP11 POP SWAP11 POP SWAP11 POP SWAP11 POP SWAP1 SWAP2 SWAP3 SWAP4 SWAP5 SWAP6 SWAP7 SWAP8 SWAP9 SWAP10 SWAP11 JUMP JUMPDEST PUSH1 0x2 PUSH1 0x0 SLOAD SUB PUSH2 0x1168 JUMPI PUSH1 0x40 MLOAD PUSH32 0x3EE5AEB500000000000000000000000000000000000000000000000000000000 DUP2 MSTORE PUSH1 0x4 ADD PUSH1 0x40 MLOAD DUP1 SWAP2 SUB SWAP1 REVERT JUMPDEST PUSH1 0x2 PUSH1 0x0 DUP2 SWAP1 SSTORE POP JUMP JUMPDEST PUSH1 0x1 PUSH1 0x0 DUP2 SWAP1 SSTORE POP JUMP JUMPDEST PUSH1 0x0 DUP2 MLOAD SWAP1 POP SWAP2 SWAP1 POP JUMP JUMPDEST PUSH1 0x0 DUP3 DUP3 MSTORE PUSH1 0x20 DUP3 ADD SWAP1 POP SWAP3 SWAP2 POP POP JUMP JUMPDEST PUSH1 0x0 JUMPDEST DUP4 DUP2 LT ISZERO PUSH2 0x11B6 JUMPI DUP1 DUP3 ADD MLOAD DUP2 DUP5 ADD MSTORE PUSH1 0x20 DUP2 ADD SWAP1 POP PUSH2 0x119B JUMP JUMPDEST PUSH1 0x0 DUP5 DUP5 ADD MSTORE POP POP POP POP JUMP JUMPDEST PUSH1 0x0 PUSH1 0x1F NOT PUSH1 0x1F DUP4 ADD AND SWAP1 POP SWAP2 SWAP1 POP JUMP JUMPDEST PUSH1 0x0 PUSH2 0x11DE DUP3 PUSH2 0x117C JUMP JUMPDEST PUSH2 0x11E8 DUP2 DUP6 PUSH2 0x1187 JUMP JUMPDEST SWAP4 POP PUSH2 0x11F8 DUP2 DUP6 PUSH1 0x20 DUP7 ADD PUSH2 0x1198 JUMP JUMPDEST PUSH2 0x1201 DUP2 PUSH2 0x11C2 JUMP JUMPDEST DUP5 ADD SWAP2 POP POP SWAP3 SWAP2 POP POP JUMP JUMPDEST PUSH1 0x0 PUSH1 0x20 DUP3 ADD SWAP1 POP DUP2 DUP2 SUB PUSH1 0x0 DUP4 ADD MSTORE PUSH2 0x1226 DUP2 DUP5 PUSH2 0x11D3 JUMP JUMPDEST SWAP1 POP SWAP3 SWAP2 POP POP JUMP JUMPDEST PUSH1 0x0 DUP2 SWAP1 POP SWAP2 SWAP1 POP JUMP JUMPDEST PUSH2 0x1241 DUP2 PUSH2 0x122E JUMP JUMPDEST DUP3 MSTORE POP POP JUMP JUMPDEST PUSH1 0x0 PUSH1 0x20 DUP3 ADD SWAP1 POP PUSH2 0x125C PUSH1 0x0 DUP4 ADD DUP5 PUSH2 0x1238 JUMP JUMPDEST SWAP3 SWAP2 POP POP JUMP JUMPDEST PUSH1 0x0 DUP1 REVERT JUMPDEST PUSH2 0x1270 DUP2 PUSH2 0x122E JUMP JUMPDEST DUP2 EQ PUSH2 0x127B JUMPI PUSH1 0x0 DUP1 REVERT JUMPDEST POP JUMP JUMPDEST PUSH1 0x0 DUP2 CALLDATALOAD SWAP1 POP PUSH2 0x128D DUP2 PUSH2 0x1267 JUMP JUMPDEST SWAP3 SWAP2 POP POP JUMP JUMPDEST PUSH1 0x0 PUSH1 0x20 DUP3 DUP5 SUB SLT ISZERO PUSH2 0x12A9 JUMPI PUSH2 0x12A8 PUSH2 0x1262 JUMP JUMPDEST JUMPDEST PUSH1 0x0 PUSH2 0x12B7 DUP5 DUP3 DUP6 ADD PUSH2 0x127E JUMP JUMPDEST SWAP2 POP POP SWAP3 SWAP2 POP POP JUMP JUMPDEST PUSH1 0x0 PUSH20 0xFFFFFFFFFFFFFFFFFFFFFFFFFFFFFFFFFFFFFFFF DUP3 AND SWAP1 POP SWAP2 SWAP1 POP JUMP JUMPDEST PUSH1 0x0 PUSH2 0x12EB DUP3 PUSH2 0x12C0 JUMP JUMPDEST SWAP1 POP SWAP2 SWAP1 POP JUMP JUMPDEST PUSH2 0x12FB DUP2 PUSH2 0x12E0 JUMP JUMPDEST DUP3 MSTORE POP POP JUMP JUMPDEST PUSH1 0x0 PUSH1 0x20 DUP3 ADD SWAP1 POP PUSH2 0x1316 PUSH1 0x0 DUP4 ADD DUP5 PUSH2 0x12F2 JUMP JUMPDEST SWAP3 SWAP2 POP POP JUMP JUMPDEST PUSH2 0x1325 DUP2 PUSH2 0x12E0 JUMP JUMPDEST DUP2 EQ PUSH2 0x1330 JUMPI PUSH1 0x0 DUP1 REVERT JUMPDEST POP JUMP JUMPDEST PUSH1 0x0 DUP2 CALLDATALOAD SWAP1 POP PUSH2 0x1342 DUP2 PUSH2 0x131C JUMP JUMPDEST SWAP3 SWAP2 POP POP JUMP JUMPDEST PUSH1 0x0 PUSH1 0x20 DUP3 DUP5 SUB SLT ISZERO PUSH2 0x135E JUMPI PUSH2 0x135D PUSH2 0x1262 JUMP JUMPDEST JUMPDEST PUSH1 0x0 PUSH2 0x136C DUP5 DUP3 DUP6 ADD PUSH2 0x1333 JUMP JUMPDEST SWAP2 POP POP SWAP3 SWAP2 POP POP JUMP JUMPDEST PUSH1 0x0 DUP2 ISZERO ISZERO SWAP1 POP SWAP2 SWAP1 POP JUMP JUMPDEST PUSH2 0x138A DUP2 PUSH2 0x1375 JUMP JUMPDEST DUP3 MSTORE POP POP JUMP JUMPDEST PUSH1 0x0 PUSH1 0x20 DUP3 ADD SWAP1 POP PUSH2 0x13A5 PUSH1 0x0 DUP4 ADD DUP5 PUSH2 0x1381 JUMP JUMPDEST SWAP3 SWAP2 POP POP JUMP JUMPDEST PUSH1 0x0 PUSH2 0x160 DUP3 ADD SWAP1 POP PUSH2 0x13C1 PUSH1 0x0 DUP4 ADD DUP15 PUSH2 0x12F2 JUMP JUMPDEST PUSH2 0x13CE PUSH1 0x20 DUP4 ADD DUP14 PUSH2 0x1238 JUMP JUMPDEST PUSH2 0x13DB PUSH1 0x40 DUP4 ADD DUP13 PUSH2 0x1238 JUMP JUMPDEST PUSH2 0x13E8 PUSH1 0x60 DUP4 ADD DUP12 PUSH2 0x1238 JUMP JUMPDEST PUSH2 0x13F5 PUSH1 0x80 DUP4 ADD DUP11 PUSH2 0x1381 JUMP JUMPDEST PUSH2 0x1402 PUSH1 0xA0 DUP4 ADD DUP10 PUSH2 0x1381 JUMP JUMPDEST PUSH2 0x140F PUSH1 0xC0 DUP4 ADD DUP9 PUSH2 0x1238 JUMP JUMPDEST PUSH2 0x141C PUSH1 0xE0 DUP4 ADD DUP8 PUSH2 0x1238 JUMP JUMPDEST DUP2 DUP2 SUB PUSH2 0x100 DUP4 ADD MSTORE PUSH2 0x142F DUP2 DUP7 PUSH2 0x11D3 JUMP JUMPDEST SWAP1 POP DUP2 DUP2 SUB PUSH2 0x120 DUP4 ADD MSTORE PUSH2 0x1444 DUP2 DUP6 PUSH2 0x11D3 JUMP JUMPDEST SWAP1 POP DUP2 DUP2 SUB PUSH2 0x140 DUP4 ADD MSTORE PUSH2 0x1459 DUP2 DUP5 PUSH2 0x11D3 JUMP JUMPDEST SWAP1 POP SWAP13 SWAP12 POP POP POP POP POP POP POP POP POP POP POP POP JUMP JUMPDEST PUSH32 0x4E487B7100000000000000000000000000000000000000000000000000000000 PUSH1 0x0 MSTORE PUSH1 0x22 PUSH1 0x4 MSTORE PUSH1 0x24 PUSH1 0x0 REVERT JUMPDEST PUSH1 0x0 PUSH1 0x2 DUP3 DIV SWAP1 POP PUSH1 0x1 DUP3 AND DUP1 PUSH2 0x14B2 JUMPI PUSH1 0x7F DUP3 AND SWAP2 POP JUMPDEST PUSH1 0x20 DUP3 LT DUP2 SUB PUSH2 0x14C5 JUMPI PUSH2 0x14C4 PUSH2 0x146B JUMP JUMPDEST JUMPDEST POP SWAP2 SWAP1 POP JUMP JUMPDEST PUSH32 0x43616D706169676E206973207374696C6C206F6E676F696E672E000000000000 PUSH1 0x0 DUP3 ADD MSTORE POP JUMP JUMPDEST PUSH1 0x0 PUSH2 0x1501 PUSH1 0x1A DUP4 PUSH2 0x1187 JUMP JUMPDEST SWAP2 POP PUSH2 0x150C DUP3 PUSH2 0x14CB JUMP JUMPDEST PUSH1 0x20 DUP3 ADD SWAP1 POP SWAP2 SWAP1 POP JUMP JUMPDEST PUSH1 0x0 PUSH1 0x20 DUP3 ADD SWAP1 POP DUP2 DUP2 SUB PUSH1 0x0 DUP4 ADD MSTORE PUSH2 0x1530 DUP2 PUSH2 0x14F4 JUMP JUMPDEST SWAP1 POP SWAP2 SWAP1 POP JUMP JUMPDEST PUSH32 0x46756E64696E6720676F616C2077617320726561636865642E20526566756E64 PUSH1 0x0 DUP3 ADD MSTORE PUSH32 0x7320617265206E6F7420617661696C61626C652E000000000000000000000000 PUSH1 0x20 DUP3 ADD MSTORE POP JUMP JUMPDEST PUSH1 0x0 PUSH2 0x1593 PUSH1 0x34 DUP4 PUSH2 0x1187 JUMP JUMPDEST SWAP2 POP PUSH2 0x159E DUP3 PUSH2 0x1537 JUMP JUMPDEST PUSH1 0x40 DUP3 ADD SWAP1 POP SWAP2 SWAP1 POP JUMP JUMPDEST PUSH1 0x0 PUSH1 0x20 DUP3 ADD SWAP1 POP DUP2 DUP2 SUB PUSH1 0x0 DUP4 ADD MSTORE PUSH2 0x15C2 DUP2 PUSH2 0x1586 JUMP JUMPDEST SWAP1 POP SWAP2 SWAP1 POP JUMP JUMPDEST PUSH32 0x416C6C20726566756E64732068617665206265656E2070726F6365737365642E PUSH1 0x0 DUP3 ADD MSTORE POP JUMP JUMPDEST PUSH1 0x0 PUSH2 0x15FF PUSH1 0x20 DUP4 PUSH2 0x1187 JUMP JUMPDEST SWAP2 POP PUSH2 0x160A DUP3 PUSH2 0x15C9 JUMP JUMPDEST PUSH1 0x20 DUP3 ADD SWAP1 POP SWAP2 SWAP1 POP JUMP JUMPDEST PUSH1 0x0 PUSH1 0x20 DUP3 ADD SWAP1 POP DUP2 DUP2 SUB PUSH1 0x0 DUP4 ADD MSTORE PUSH2 0x162E DUP2 PUSH2 0x15F2 JUMP JUMPDEST SWAP1 POP SWAP2 SWAP1 POP JUMP JUMPDEST PUSH32 0x4E487B7100000000000000000000000000000000000000000000000000000000 PUSH1 0x0 MSTORE PUSH1 0x32 PUSH1 0x4 MSTORE PUSH1 0x24 PUSH1 0x0 REVERT JUMPDEST PUSH1 0x0 PUSH1 0x40 DUP3 ADD SWAP1 POP PUSH2 0x1679 PUSH1 0x0 DUP4 ADD DUP6 PUSH2 0x12F2 JUMP JUMPDEST PUSH2 0x1686 PUSH1 0x20 DUP4 ADD DUP5 PUSH2 0x1238 JUMP JUMPDEST SWAP4 SWAP3 POP POP POP JUMP JUMPDEST PUSH32 0x4E487B7100000000000000000000000000000000000000000000000000000000 PUSH1 0x0 MSTORE PUSH1 0x11 PUSH1 0x4 MSTORE PUSH1 0x24 PUSH1 0x0 REVERT JUMPDEST PUSH1 0x0 PUSH2 0x16C7 DUP3 PUSH2 0x122E JUMP JUMPDEST SWAP2 POP PUSH32 0xFFFFFFFFFFFFFFFFFFFFFFFFFFFFFFFFFFFFFFFFFFFFFFFFFFFFFFFFFFFFFFFF DUP3 SUB PUSH2 0x16F9 JUMPI PUSH2 0x16F8 PUSH2 0x168D JUMP JUMPDEST JUMPDEST PUSH1 0x1 DUP3 ADD SWAP1 POP SWAP2 SWAP1 POP JUMP JUMPDEST PUSH1 0x0 PUSH2 0x170F DUP3 PUSH2 0x122E JUMP JUMPDEST SWAP2 POP PUSH2 0x171A DUP4 PUSH2 0x122E JUMP JUMPDEST SWAP3 POP DUP3 DUP3 SUB SWAP1 POP DUP2 DUP2 GT ISZERO PUSH2 0x1732 JUMPI PUSH2 0x1731 PUSH2 0x168D JUMP JUMPDEST JUMPDEST SWAP3 SWAP2 POP POP JUMP JUMPDEST PUSH32 0x4F6E6C79206D616E616765722063616E2063616C6C20746869732066756E6374 PUSH1 0x0 DUP3 ADD MSTORE PUSH32 0x696F6E2E00000000000000000000000000000000000000000000000000000000 PUSH1 0x20 DUP3 ADD MSTORE POP JUMP JUMPDEST PUSH1 0x0 PUSH2 0x1794 PUSH1 0x24 DUP4 PUSH2 0x1187 JUMP JUMPDEST SWAP2 POP PUSH2 0x179F DUP3 PUSH2 0x1738 JUMP JUMPDEST PUSH1 0x40 DUP3 ADD SWAP1 POP SWAP2 SWAP1 POP JUMP JUMPDEST PUSH1 0x0 PUSH1 0x20 DUP3 ADD SWAP1 POP DUP2 DUP2 SUB PUSH1 0x0 DUP4 ADD MSTORE PUSH2 0x17C3 DUP2 PUSH2 0x1787 JUMP JUMPDEST SWAP1 POP SWAP2 SWAP1 POP JUMP JUMPDEST PUSH32 0x46756E64696E6720676F616C206E6F7420726561636865642E00000000000000 PUSH1 0x0 DUP3 ADD MSTORE POP JUMP JUMPDEST PUSH1 0x0 PUSH2 0x1800 PUSH1 0x19 DUP4 PUSH2 0x1187 JUMP JUMPDEST SWAP2 POP PUSH2 0x180B DUP3 PUSH2 0x17CA JUMP JUMPDEST PUSH1 0x20 DUP3 ADD SWAP1 POP SWAP2 SWAP1 POP JUMP JUMPDEST PUSH1 0x0 PUSH1 0x20 DUP3 ADD SWAP1 POP DUP2 DUP2 SUB PUSH1 0x0 DUP4 ADD MSTORE PUSH2 0x182F DUP2 PUSH2 0x17F3 JUMP JUMPDEST SWAP1 POP SWAP2 SWAP1 POP JUMP JUMPDEST PUSH32 0x46756E6473206861766520616C7265616479206265656E20636C61696D65642E PUSH1 0x0 DUP3 ADD MSTORE POP JUMP JUMPDEST PUSH1 0x0 PUSH2 0x186C PUSH1 0x20 DUP4 PUSH2 0x1187 JUMP JUMPDEST SWAP2 POP PUSH2 0x1877 DUP3 PUSH2 0x1836 JUMP JUMPDEST PUSH1 0x20 DUP3 ADD SWAP1 POP SWAP2 SWAP1 POP JUMP JUMPDEST PUSH1 0x0 PUSH1 0x20 DUP3 ADD SWAP1 POP DUP2 DUP2 SUB PUSH1 0x0 DUP4 ADD MSTORE PUSH2 0x189B DUP2 PUSH2 0x185F JUMP JUMPDEST SWAP1 POP SWAP2 SWAP1 POP JUMP JUMPDEST PUSH32 0x43616D706169676E2068617320656E6465642E00000000000000000000000000 PUSH1 0x0 DUP3 ADD MSTORE POP JUMP JUMPDEST PUSH1 0x0 PUSH2 0x18D8 PUSH1 0x13 DUP4 PUSH2 0x1187 JUMP JUMPDEST SWAP2 POP PUSH2 0x18E3 DUP3 PUSH2 0x18A2 JUMP JUMPDEST PUSH1 0x20 DUP3 ADD SWAP1 POP SWAP2 SWAP1 POP JUMP JUMPDEST PUSH1 0x0 PUSH1 0x20 DUP3 ADD SWAP1 POP DUP2 DUP2 SUB PUSH1 0x0 DUP4 ADD MSTORE PUSH2 0x1907 DUP2 PUSH2 0x18CB JUMP JUMPDEST SWAP1 POP SWAP2 SWAP1 POP JUMP JUMPDEST PUSH32 0x436F6E747269627574696F6E206D757374206265206772656174657220746861 PUSH1 0x0 DUP3 ADD MSTORE PUSH32 0x6E207A65726F2E00000000000000000000000000000000000000000000000000 PUSH1 0x20 DUP3 ADD MSTORE POP JUMP JUMPDEST PUSH1 0x0 PUSH2 0x196A PUSH1 0x27 DUP4 PUSH2 0x1187 JUMP JUMPDEST SWAP2 POP PUSH2 0x1975 DUP3 PUSH2 0x190E JUMP JUMPDEST PUSH1 0x40 DUP3 ADD SWAP1 POP SWAP2 SWAP1 POP JUMP JUMPDEST PUSH1 0x0 PUSH1 0x20 DUP3 ADD SWAP1 POP DUP2 DUP2 SUB PUSH1 0x0 DUP4 ADD MSTORE PUSH2 0x1999 DUP2 PUSH2 0x195D JUMP JUMPDEST SWAP1 POP SWAP2 SWAP1 POP JUMP JUMPDEST PUSH1 0x0 PUSH2 0x19AB DUP3 PUSH2 0x122E JUMP JUMPDEST SWAP2 POP PUSH2 0x19B6 DUP4 PUSH2 0x122E JUMP JUMPDEST SWAP3 POP DUP3 DUP3 ADD SWAP1 POP DUP1 DUP3 GT ISZERO PUSH2 0x19CE JUMPI PUSH2 0x19CD PUSH2 0x168D JUMP JUMPDEST JUMPDEST SWAP3 SWAP2 POP POP JUMP INVALID LOG2 PUSH5 0x6970667358 0x22 SLT KECCAK256 ORIGIN 0xC GAS 0xB0 0x21 0xE4 RETURNDATACOPY MSTORE8 SAR SWAP1 SWAP14 0xD1 DUP2 PUSH1 0x58 SLOAD 0xE8 0xA8 0x23 POP SWAP9 0xCB 0xF8 0xC3 POP 0xCE SWAP13 0xD8 PUSH9 0xCE5A7064736F6C6343 STOP ADDMOD XOR STOP CALLER "},"methodIdentifiers":{"campaignName()":"0724fda9","claimFunds()":"ac307773","contribute()":"d7bb99ba","contributions(address)":"42e94c90","contributors(uint256)":"3cb5d100","deadline()":"29dcb0cf","deposit()":"d0e30db0","description()":"7284e416","fundsClaimed()":"5c6a0246","getDetails()":"fbbf93a0","goal()":"40193883","goalReached()":"7d3d6522","image()":"f3ccaac0","manager()":"481c6a75","ownerName()":"65ac2320","pledged()":"aeafca2e","refundIndex()":"133309b8","triggerRefunds(uint256)":"35315d8d"}}}}}