{
  "_format": "hh-sol-artifact-1",
  "contractName": "Campaign",
  "sourceName": "contracts/Campaign.sol",
  "abi": [
    {
      "inputs": [
        {
          "internalType": "address",
          "name": "_manager",
          "type": "address"
        },
        {
          "internalType": "uint256",
          "name": "_goal",
          "type": "uint256"
        },
        {
          "internalType": "uint256",
          "name": "_deadline",
          "type": "uint256"
        },
        {
          "internalType": "string",
          "name": "_image",
          "type": "string"
        },
        {
          "internalType": "string",
          "name": "_campaignName",
          "type": "string"
        },
        {
          "internalType": "string",
          "name": "_ownerName",
          "type": "string"
        },
        {
          "internalType": "string",
          "name": "_description",
          "type": "string"
        }
      ],
      "stateMutability": "payable",
      "type": "constructor"
    },
    {
      "inputs": [],
      "name": "ReentrancyGuardReentrantCall",
      "type": "error"
    },
    {
      "anonymous": false,
      "inputs": [
        {
          "indexed": false,
          "internalType": "address",
          "name": "contributor",
          "type": "address"
        },
        {
          "indexed": false,
          "internalType": "uint256",
          "name": "amount",
          "type": "uint256"
        }
      ],
      "name": "ContributionReceived",
      "type": "event"
    },
    {
      "anonymous": false,
      "inputs": [
        {
          "indexed": false,
          "internalType": "address",
          "name": "manager",
          "type": "address"
        },
        {
          "indexed": false,
          "internalType": "uint256",
          "name": "amount",
          "type": "uint256"
        }
      ],
      "name": "FundsClaimed",
      "type": "event"
    },
    {
      "anonymous": false,
      "inputs": [
        {
          "indexed": false,
          "internalType": "address",
          "name": "contributor",
          "type": "address"
        },
        {
          "indexed": false,
          "internalType": "uint256",
          "name": "amount",
          "type": "uint256"
        }
      ],
      "name": "RefundIssued",
      "type": "event"
    },
    {
      "anonymous": false,
      "inputs": [
        {
          "indexed": false,
          "internalType": "uint256",
          "name": "numProcessed",
          "type": "uint256"
        }
      ],
      "name": "RefundsProcessed",
      "type": "event"
    },
    {
      "inputs": [],
      "name": "campaignName",
      "outputs": [
        {
          "internalType": "string",
          "name": "",
          "type": "string"
        }
      ],
      "stateMutability": "view",
      "type": "function"
    },
    {
      "inputs": [],
      "name": "claimFunds",
      "outputs": [],
      "stateMutability": "nonpayable",
      "type": "function"
    },
    {
      "inputs": [],
      "name": "contribute",
      "outputs": [],
      "stateMutability": "payable",
      "type": "function"
    },
    {
      "inputs": [
        {
          "internalType": "address",
          "name": "",
          "type": "address"
        }
      ],
      "name": "contributions",
      "outputs": [
        {
          "internalType": "uint256",
          "name": "",
          "type": "uint256"
        }
      ],
      "stateMutability": "view",
      "type": "function"
    },
    {
      "inputs": [
        {
          "internalType": "uint256",
          "name": "",
          "type": "uint256"
        }
      ],
      "name": "contributors",
      "outputs": [
        {
          "internalType": "address",
          "name": "",
          "type": "address"
        }
      ],
      "stateMutability": "view",
      "type": "function"
    },
    {
      "inputs": [],
      "name": "deadline",
      "outputs": [
        {
          "internalType": "uint256",
          "name": "",
          "type": "uint256"
        }
      ],
      "stateMutability": "view",
      "type": "function"
    },
    {
      "inputs": [],
      "name": "deposit",
      "outputs": [
        {
          "internalType": "uint256",
          "name": "",
          "type": "uint256"
        }
      ],
      "stateMutability": "view",
      "type": "function"
    },
    {
      "inputs": [],
      "name": "description",
      "outputs": [
        {
          "internalType": "string",
          "name": "",
          "type": "string"
        }
      ],
      "stateMutability": "view",
      "type": "function"
    },
    {
      "inputs": [],
      "name": "fundsClaimed",
      "outputs": [
        {
          "internalType": "bool",
          "name": "",
          "type": "bool"
        }
      ],
      "stateMutability": "view",
      "type": "function"
    },
    {
      "inputs": [],
      "name": "getDetails",
      "outputs": [
        {
          "internalType": "address",
          "name": "_manager",
          "type": "address"
        },
        {
          "internalType": "uint256",
          "name": "_goal",
          "type": "uint256"
        },
        {
          "internalType": "uint256",
          "name": "_pledged",
          "type": "uint256"
        },
        {
          "internalType": "uint256",
          "name": "_deadline",
          "type": "uint256"
        },
        {
          "internalType": "bool",
          "name": "_goalReached",
          "type": "bool"
        },
        {
          "internalType": "bool",
          "name": "_fundsClaimed",
          "type": "bool"
        },
        {
          "internalType": "uint256",
          "name": "_refundIndex",
          "type": "uint256"
        },
        {
          "internalType": "uint256",
          "name": "_totalContributors",
          "type": "uint256"
        },
        {
          "internalType": "string",
          "name": "_campaignName",
          "type": "string"
        },
        {
          "internalType": "string",
          "name": "_ownerName",
          "type": "string"
        },
        {
          "internalType": "string",
          "name": "_description",
          "type": "string"
        }
      ],
      "stateMutability": "view",
      "type": "function"
    },
    {
      "inputs": [],
      "name": "goal",
      "outputs": [
        {
          "internalType": "uint256",
          "name": "",
          "type": "uint256"
        }
      ],
      "stateMutability": "view",
      "type": "function"
    },
    {
      "inputs": [],
      "name": "goalReached",
      "outputs": [
        {
          "internalType": "bool",
          "name": "",
          "type": "bool"
        }
      ],
      "stateMutability": "view",
      "type": "function"
    },
    {
      "inputs": [],
      "name": "image",
      "outputs": [
        {
          "internalType": "string",
          "name": "",
          "type": "string"
        }
      ],
      "stateMutability": "view",
      "type": "function"
    },
    {
      "inputs": [],
      "name": "manager",
      "outputs": [
        {
          "internalType": "address",
          "name": "",
          "type": "address"
        }
      ],
      "stateMutability": "view",
      "type": "function"
    },
    {
      "inputs": [],
      "name": "ownerName",
      "outputs": [
        {
          "internalType": "string",
          "name": "",
          "type": "string"
        }
      ],
      "stateMutability": "view",
      "type": "function"
    },
    {
      "inputs": [],
      "name": "pledged",
      "outputs": [
        {
          "internalType": "uint256",
          "name": "",
          "type": "uint256"
        }
      ],
      "stateMutability": "view",
      "type": "function"
    },
    {
      "inputs": [],
      "name": "refundIndex",
      "outputs": [
        {
          "internalType": "uint256",
          "name": "",
          "type": "uint256"
        }
      ],
      "stateMutability": "view",
      "type": "function"
    },
    {
      "inputs": [
        {
          "internalType": "uint256",
          "name": "_numContributors",
          "type": "uint256"
        }
      ],
      "name": "triggerRefunds",
      "outputs": [],
      "stateMutability": "nonpayable",
      "type": "function"
    },
    {
      "stateMutability": "payable",
      "type": "receive"
    }
  ],
  "bytecode": "0x608060405260405162002307380380620023078339818101604052810190620000299190620003a1565b600160008190555042851162000076576040517f08c379a00000000000000000000000000000000000000000000000000000000081526004016200006d9062000531565b60405180910390fd5b6706f05b59d3b200003414620000c3576040517f08c379a0000000000000000000000000000000000000000000000000000000008152600401620000ba90620005a3565b60405180910390fd5b86600160006101000a81548173ffffffffffffffffffffffffffffffffffffffff021916908373ffffffffffffffffffffffffffffffffffffffff16021790555085600281905550846004819055503460098190555083600a90816200012a919062000806565b5082600b90816200013c919062000806565b5081600c90816200014e919062000806565b5080600d908162000160919062000806565b5050505050505050620008ed565b6000604051905090565b600080fd5b600080fd5b600073ffffffffffffffffffffffffffffffffffffffff82169050919050565b6000620001af8262000182565b9050919050565b620001c181620001a2565b8114620001cd57600080fd5b50565b600081519050620001e181620001b6565b92915050565b6000819050919050565b620001fc81620001e7565b81146200020857600080fd5b50565b6000815190506200021c81620001f1565b92915050565b600080fd5b600080fd5b6000601f19601f8301169050919050565b7f4e487b7100000000000000000000000000000000000000000000000000000000600052604160045260246000fd5b62000277826200022c565b810181811067ffffffffffffffff821117156200029957620002986200023d565b5b80604052505050565b6000620002ae6200016e565b9050620002bc82826200026c565b919050565b600067ffffffffffffffff821115620002df57620002de6200023d565b5b620002ea826200022c565b9050602081019050919050565b60005b8381101562000317578082015181840152602081019050620002fa565b60008484015250505050565b60006200033a6200033484620002c1565b620002a2565b90508281526020810184848401111562000359576200035862000227565b5b62000366848285620002f7565b509392505050565b600082601f83011262000386576200038562000222565b5b81516200039884826020860162000323565b91505092915050565b600080600080600080600060e0888a031215620003c357620003c262000178565b5b6000620003d38a828b01620001d0565b9750506020620003e68a828b016200020b565b9650506040620003f98a828b016200020b565b955050606088015167ffffffffffffffff8111156200041d576200041c6200017d565b5b6200042b8a828b016200036e565b945050608088015167ffffffffffffffff8111156200044f576200044e6200017d565b5b6200045d8a828b016200036e565b93505060a088015167ffffffffffffffff8111156200048157620004806200017d565b5b6200048f8a828b016200036e565b92505060c088015167ffffffffffffffff811115620004b357620004b26200017d565b5b620004c18a828b016200036e565b91505092959891949750929550565b600082825260208201905092915050565b7f446561646c696e65206d75737420626520696e20746865206675747572652e00600082015250565b600062000519601f83620004d0565b91506200052682620004e1565b602082019050919050565b600060208201905081810360008301526200054c816200050a565b9050919050565b7f4120302e3520455448206465706f7369742069732072657175697265642e0000600082015250565b60006200058b601e83620004d0565b9150620005988262000553565b602082019050919050565b60006020820190508181036000830152620005be816200057c565b9050919050565b600081519050919050565b7f4e487b7100000000000000000000000000000000000000000000000000000000600052602260045260246000fd5b600060028204905060018216806200061857607f821691505b6020821081036200062e576200062d620005d0565b5b50919050565b60008190508160005260206000209050919050565b60006020601f8301049050919050565b600082821b905092915050565b600060088302620006987fffffffffffffffffffffffffffffffffffffffffffffffffffffffffffffffff8262000659565b620006a4868362000659565b95508019841693508086168417925050509392505050565b6000819050919050565b6000620006e7620006e1620006db84620001e7565b620006bc565b620001e7565b9050919050565b6000819050919050565b6200070383620006c6565b6200071b6200071282620006ee565b84845462000666565b825550505050565b600090565b6200073262000723565b6200073f818484620006f8565b505050565b5b8181101562000767576200075b60008262000728565b60018101905062000745565b5050565b601f821115620007b657620007808162000634565b6200078b8462000649565b810160208510156200079b578190505b620007b3620007aa8562000649565b83018262000744565b50505b505050565b600082821c905092915050565b6000620007db60001984600802620007bb565b1980831691505092915050565b6000620007f68383620007c8565b9150826002028217905092915050565b6200081182620005c5565b67ffffffffffffffff8111156200082d576200082c6200023d565b5b620008398254620005ff565b620008468282856200076b565b600060209050601f8311600181146200087e576000841562000869578287015190505b620008758582620007e8565b865550620008e5565b601f1984166200088e8662000634565b60005b82811015620008b85784890151825560018201915060208501945060208101905062000891565b86831015620008d85784890151620008d4601f891682620007c8565b8355505b6001600288020188555050505b505050505050565b611a0a80620008fd6000396000f3fe60806040526004361061010d5760003560e01c806365ac232011610095578063aeafca2e11610064578063aeafca2e14610356578063d0e30db014610381578063d7bb99ba146103ac578063f3ccaac0146103b6578063fbbf93a0146103e157610114565b806365ac2320146102be5780637284e416146102e95780637d3d652214610314578063ac3077731461033f57610114565b80633cb5d100116100dc5780633cb5d100146101c3578063401938831461020057806342e94c901461022b578063481c6a75146102685780635c6a02461461029357610114565b80630724fda914610119578063133309b81461014457806329dcb0cf1461016f57806335315d8d1461019a57610114565b3661011457005b600080fd5b34801561012557600080fd5b5061012e610416565b60405161013b919061120c565b60405180910390f35b34801561015057600080fd5b506101596104a4565b6040516101669190611247565b60405180910390f35b34801561017b57600080fd5b506101846104aa565b6040516101919190611247565b60405180910390f35b3480156101a657600080fd5b506101c160048036038101906101bc9190611293565b6104b0565b005b3480156101cf57600080fd5b506101ea60048036038101906101e59190611293565b610854565b6040516101f79190611301565b60405180910390f35b34801561020c57600080fd5b50610215610893565b6040516102229190611247565b60405180910390f35b34801561023757600080fd5b50610252600480360381019061024d9190611348565b610899565b60405161025f9190611247565b60405180910390f35b34801561027457600080fd5b5061027d6108b1565b60405161028a9190611301565b60405180910390f35b34801561029f57600080fd5b506102a86108d7565b6040516102b59190611390565b60405180910390f35b3480156102ca57600080fd5b506102d36108ea565b6040516102e0919061120c565b60405180910390f35b3480156102f557600080fd5b506102fe610978565b60405161030b919061120c565b60405180910390f35b34801561032057600080fd5b50610329610a06565b6040516103369190611390565b60405180910390f35b34801561034b57600080fd5b50610354610a19565b005b34801561036257600080fd5b5061036b610c4c565b6040516103789190611247565b60405180910390f35b34801561038d57600080fd5b50610396610c52565b6040516103a39190611247565b60405180910390f35b6103b4610c58565b005b3480156103c257600080fd5b506103cb610e6b565b6040516103d8919061120c565b60405180910390f35b3480156103ed57600080fd5b506103f6610ef9565b60405161040d9b9a999897969594939291906113ab565b60405180910390f35b600b80546104239061149a565b80601f016020809104026020016040519081016040528092919081815260200182805461044f9061149a565b801561049c5780601f106104715761010080835404028352916020019161049c565b820191906000526020600020905b81548152906001019060200180831161047f57829003601f168201915b505050505081565b60085481565b60045481565b6104b861112c565b6004544210156104fd576040517f08c379a00000000000000000000000000000000000000000000000000000000081526004016104f490611517565b60405180910390fd5b600560009054906101000a900460ff161561054d576040517f08c379a0000000000000000000000000000000000000000000000000000000008152600401610544906115a9565b60405180910390fd5b60078054905060085410610596576040517f08c379a000000000000000000000000000000000000000000000000000000000815260040161058d90611615565b60405180910390fd5b60005b6007805490506008541080156105ae57508181105b156107385760006007600854815481106105cb576105ca611635565b5b9060005260206000200160009054906101000a900473ffffffffffffffffffffffffffffffffffffffff1690506000600660008373ffffffffffffffffffffffffffffffffffffffff1673ffffffffffffffffffffffffffffffffffffffff168152602001908152602001600020549050600081111561070b576000600660008473ffffffffffffffffffffffffffffffffffffffff1673ffffffffffffffffffffffffffffffffffffffff168152602001908152602001600020819055508173ffffffffffffffffffffffffffffffffffffffff166108fc829081150290604051600060405180830381858888f193505050501580156106d0573d6000803e3d6000fd5b507fa171b6942063c6f2800ce40a780edce37baa2b618571b11eedd1e69e626e7d768282604051610702929190611664565b60405180910390a15b6008600081548092919061071e906116bc565b9190505550828061072e906116bc565b9350505050610599565b6000662386f26fc10000905080600954106107b2573373ffffffffffffffffffffffffffffffffffffffff166108fc829081150290604051600060405180830381858888f19350505050158015610793573d6000803e3d6000fd5b5080600960008282546107a69190611704565b92505081905550610810565b6000600954111561080f573373ffffffffffffffffffffffffffffffffffffffff166108fc6009549081150290604051600060405180830381858888f19350505050158015610805573d6000803e3d6000fd5b5060006009819055505b5b7f46d3850b571318301cc4e460ba87545dd2bdd6d1f8e6fb10c4c4c8f57e1a826c8260405161083f9190611247565b60405180910390a15050610851611172565b50565b6007818154811061086457600080fd5b906000526020600020016000915054906101000a900473ffffffffffffffffffffffffffffffffffffffff1681565b60025481565b60066020528060005260406000206000915090505481565b600160009054906101000a900473ffffffffffffffffffffffffffffffffffffffff1681565b600560019054906101000a900460ff1681565b600c80546108f79061149a565b80601f01602080910402602001604051908101604052809291908181526020018280546109239061149a565b80156109705780601f1061094557610100808354040283529160200191610970565b820191906000526020600020905b81548152906001019060200180831161095357829003601f168201915b505050505081565b600d80546109859061149a565b80601f01602080910402602001604051908101604052809291908181526020018280546109b19061149a565b80156109fe5780601f106109d3576101008083540402835291602001916109fe565b820191906000526020600020905b8154815290600101906020018083116109e157829003601f168201915b505050505081565b600560009054906101000a900460ff1681565b600160009054906101000a900473ffffffffffffffffffffffffffffffffffffffff1673ffffffffffffffffffffffffffffffffffffffff163373ffffffffffffffffffffffffffffffffffffffff1614610aa9576040517f08c379a0000000000000000000000000000000000000000000000000000000008152600401610aa0906117aa565b60405180910390fd5b610ab161112c565b600560009054906101000a900460ff16610b00576040517f08c379a0000000000000000000000000000000000000000000000000000000008152600401610af790611816565b60405180910390fd5b600560019054906101000a900460ff1615610b50576040517f08c379a0000000000000000000000000000000000000000000000000000000008152600401610b4790611882565b60405180910390fd5b6001600560016101000a81548160ff021916908315150217905550600060095447610b7b9190611704565b9050600160009054906101000a900473ffffffffffffffffffffffffffffffffffffffff1673ffffffffffffffffffffffffffffffffffffffff166108fc829081150290604051600060405180830381858888f19350505050158015610be5573d6000803e3d6000fd5b507fa65a8b4f7f65a1063243d7f7e9e4da00ff767599acf21549ef2548a45d1695ae600160009054906101000a900473ffffffffffffffffffffffffffffffffffffffff1682604051610c39929190611664565b60405180910390a150610c4a611172565b565b60035481565b60095481565b610c6061112c565b6004544210610ca4576040517f08c379a0000000000000000000000000000000000000000000000000000000008152600401610c9b906118ee565b60405180910390fd5b60003411610ce7576040517f08c379a0000000000000000000000000000000000000000000000000000000008152600401610cde90611980565b60405180910390fd5b6000600660003373ffffffffffffffffffffffffffffffffffffffff1673ffffffffffffffffffffffffffffffffffffffff1681526020019081526020016000205403610d92576007339080600181540180825580915050600190039060005260206000200160009091909190916101000a81548173ffffffffffffffffffffffffffffffffffffffff021916908373ffffffffffffffffffffffffffffffffffffffff1602179055505b34600660003373ffffffffffffffffffffffffffffffffffffffff1673ffffffffffffffffffffffffffffffffffffffff1681526020019081526020016000206000828254610de191906119a0565b925050819055503460036000828254610dfa91906119a0565b925050819055507f1bb460ccaaf70fbacfec17a376f8acbd278c1405590ffcc8ebe4b88daf4f64ad3334604051610e32929190611664565b60405180910390a160025460035410610e61576001600560006101000a81548160ff0219169083151502179055505b610e69611172565b565b600a8054610e789061149a565b80601f0160208091040260200160405190810160405280929190818152602001828054610ea49061149a565b8015610ef15780601f10610ec657610100808354040283529160200191610ef1565b820191906000526020600020905b815481529060010190602001808311610ed457829003601f168201915b505050505081565b6000806000806000806000806060806060600160009054906101000a900473ffffffffffffffffffffffffffffffffffffffff16600254600354600454600560009054906101000a900460ff16600560019054906101000a900460ff16600854600780549050600b600c600d828054610f719061149a565b80601f0160208091040260200160405190810160405280929190818152602001828054610f9d9061149a565b8015610fea5780601f10610fbf57610100808354040283529160200191610fea565b820191906000526020600020905b815481529060010190602001808311610fcd57829003601f168201915b50505050509250818054610ffd9061149a565b80601f01602080910402602001604051908101604052809291908181526020018280546110299061149a565b80156110765780601f1061104b57610100808354040283529160200191611076565b820191906000526020600020905b81548152906001019060200180831161105957829003601f168201915b505050505091508080546110899061149a565b80601f01602080910402602001604051908101604052809291908181526020018280546110b59061149a565b80156111025780601f106110d757610100808354040283529160200191611102565b820191906000526020600020905b8154815290600101906020018083116110e557829003601f168201915b505050505090509a509a509a509a509a509a509a509a509a509a509a50909192939495969798999a565b600260005403611168576040517f3ee5aeb500000000000000000000000000000000000000000000000000000000815260040160405180910390fd5b6002600081905550565b6001600081905550565b600081519050919050565b600082825260208201905092915050565b60005b838110156111b657808201518184015260208101905061119b565b60008484015250505050565b6000601f19601f8301169050919050565b60006111de8261117c565b6111e88185611187565b93506111f8818560208601611198565b611201816111c2565b840191505092915050565b6000602082019050818103600083015261122681846111d3565b905092915050565b6000819050919050565b6112418161122e565b82525050565b600060208201905061125c6000830184611238565b92915050565b600080fd5b6112708161122e565b811461127b57600080fd5b50565b60008135905061128d81611267565b92915050565b6000602082840312156112a9576112a8611262565b5b60006112b78482850161127e565b91505092915050565b600073ffffffffffffffffffffffffffffffffffffffff82169050919050565b60006112eb826112c0565b9050919050565b6112fb816112e0565b82525050565b600060208201905061131660008301846112f2565b92915050565b611325816112e0565b811461133057600080fd5b50565b6000813590506113428161131c565b92915050565b60006020828403121561135e5761135d611262565b5b600061136c84828501611333565b91505092915050565b60008115159050919050565b61138a81611375565b82525050565b60006020820190506113a56000830184611381565b92915050565b6000610160820190506113c1600083018e6112f2565b6113ce602083018d611238565b6113db604083018c611238565b6113e8606083018b611238565b6113f5608083018a611381565b61140260a0830189611381565b61140f60c0830188611238565b61141c60e0830187611238565b81810361010083015261142f81866111d3565b905081810361012083015261144481856111d3565b905081810361014083015261145981846111d3565b90509c9b505050505050505050505050565b7f4e487b7100000000000000000000000000000000000000000000000000000000600052602260045260246000fd5b600060028204905060018216806114b257607f821691505b6020821081036114c5576114c461146b565b5b50919050565b7f43616d706169676e206973207374696c6c206f6e676f696e672e000000000000600082015250565b6000611501601a83611187565b915061150c826114cb565b602082019050919050565b60006020820190508181036000830152611530816114f4565b9050919050565b7f46756e64696e6720676f616c2077617320726561636865642e20526566756e6460008201527f7320617265206e6f7420617661696c61626c652e000000000000000000000000602082015250565b6000611593603483611187565b915061159e82611537565b604082019050919050565b600060208201905081810360008301526115c281611586565b9050919050565b7f416c6c20726566756e64732068617665206265656e2070726f6365737365642e600082015250565b60006115ff602083611187565b915061160a826115c9565b602082019050919050565b6000602082019050818103600083015261162e816115f2565b9050919050565b7f4e487b7100000000000000000000000000000000000000000000000000000000600052603260045260246000fd5b600060408201905061167960008301856112f2565b6116866020830184611238565b9392505050565b7f4e487b7100000000000000000000000000000000000000000000000000000000600052601160045260246000fd5b60006116c78261122e565b91507fffffffffffffffffffffffffffffffffffffffffffffffffffffffffffffffff82036116f9576116f861168d565b5b600182019050919050565b600061170f8261122e565b915061171a8361122e565b92508282039050818111156117325761173161168d565b5b92915050565b7f4f6e6c79206d616e616765722063616e2063616c6c20746869732066756e637460008201527f696f6e2e00000000000000000000000000000000000000000000000000000000602082015250565b6000611794602483611187565b915061179f82611738565b604082019050919050565b600060208201905081810360008301526117c381611787565b9050919050565b7f46756e64696e6720676f616c206e6f7420726561636865642e00000000000000600082015250565b6000611800601983611187565b915061180b826117ca565b602082019050919050565b6000602082019050818103600083015261182f816117f3565b9050919050565b7f46756e6473206861766520616c7265616479206265656e20636c61696d65642e600082015250565b600061186c602083611187565b915061187782611836565b602082019050919050565b6000602082019050818103600083015261189b8161185f565b9050919050565b7f43616d706169676e2068617320656e6465642e00000000000000000000000000600082015250565b60006118d8601383611187565b91506118e3826118a2565b602082019050919050565b60006020820190508181036000830152611907816118cb565b9050919050565b7f436f6e747269627574696f6e206d75737420626520677265617465722074686160008201527f6e207a65726f2e00000000000000000000000000000000000000000000000000602082015250565b600061196a602783611187565b91506119758261190e565b604082019050919050565b600060208201905081810360008301526119998161195d565b9050919050565b60006119ab8261122e565b91506119b68361122e565b92508282019050808211156119ce576119cd61168d565b5b9291505056fea2646970667358221220320c5ab021e43e531d909dd181605854e8a8235098cbf8c350ce9cd868ce5a7064736f6c63430008180033",
  "linkReferences": {},
  "deployedLinkReferences": {}
}